{
  "address": "0xD661A18E824c8d2EDf3BADF75aeDDa5B7D142448",
  "abi": [
    {
      "anonymous": false,
      "inputs": [
        {
          "indexed": true,
          "internalType": "contract IERC20Upgradeable",
          "name": "token",
          "type": "address"
        },
        {
          "indexed": false,
          "internalType": "address",
          "name": "to",
          "type": "address"
        },
        {
          "indexed": false,
          "internalType": "uint256",
          "name": "amount",
          "type": "uint256"
        }
      ],
      "name": "ERC20PaymentReleased",
      "type": "event"
    },
    {
      "anonymous": false,
      "inputs": [
        {
          "indexed": false,
          "internalType": "uint8",
          "name": "version",
          "type": "uint8"
        }
      ],
      "name": "Initialized",
      "type": "event"
    },
    {
      "anonymous": false,
      "inputs": [
        {
          "indexed": false,
          "internalType": "address",
          "name": "account",
          "type": "address"
        },
        {
          "indexed": false,
          "internalType": "uint256",
          "name": "shares",
          "type": "uint256"
        }
      ],
      "name": "PayeeAdded",
      "type": "event"
    },
    {
      "anonymous": false,
      "inputs": [
        {
          "indexed": false,
          "internalType": "address",
          "name": "from",
          "type": "address"
        },
        {
          "indexed": false,
          "internalType": "uint256",
          "name": "amount",
          "type": "uint256"
        }
      ],
      "name": "PaymentReceived",
      "type": "event"
    },
    {
      "anonymous": false,
      "inputs": [
        {
          "indexed": false,
          "internalType": "address",
          "name": "to",
          "type": "address"
        },
        {
          "indexed": false,
          "internalType": "uint256",
          "name": "amount",
          "type": "uint256"
        }
      ],
      "name": "PaymentReleased",
      "type": "event"
    },
    {
      "inputs": [
        {
          "internalType": "address",
          "name": "_communityWallet",
          "type": "address"
        },
        {
          "internalType": "address",
          "name": "_treasureWallet",
          "type": "address"
        },
        {
          "internalType": "uint256",
          "name": "_communityShare",
          "type": "uint256"
        },
        {
          "internalType": "uint256",
          "name": "_treasureShare",
          "type": "uint256"
        }
      ],
      "name": "initialize",
      "outputs": [],
      "stateMutability": "nonpayable",
      "type": "function"
    },
    {
      "inputs": [
        {
          "internalType": "uint256",
          "name": "index",
          "type": "uint256"
        }
      ],
      "name": "payee",
      "outputs": [
        {
          "internalType": "address",
          "name": "",
          "type": "address"
        }
      ],
      "stateMutability": "view",
      "type": "function"
    },
    {
      "inputs": [
        {
          "internalType": "address",
          "name": "account",
          "type": "address"
        }
      ],
      "name": "releasable",
      "outputs": [
        {
          "internalType": "uint256",
          "name": "",
          "type": "uint256"
        }
      ],
      "stateMutability": "view",
      "type": "function"
    },
    {
      "inputs": [
        {
          "internalType": "contract IERC20Upgradeable",
          "name": "token",
          "type": "address"
        },
        {
          "internalType": "address",
          "name": "account",
          "type": "address"
        }
      ],
      "name": "releasable",
      "outputs": [
        {
          "internalType": "uint256",
          "name": "",
          "type": "uint256"
        }
      ],
      "stateMutability": "view",
      "type": "function"
    },
    {
      "inputs": [
        {
          "internalType": "address payable",
          "name": "account",
          "type": "address"
        }
      ],
      "name": "release",
      "outputs": [],
      "stateMutability": "nonpayable",
      "type": "function"
    },
    {
      "inputs": [
        {
          "internalType": "contract IERC20Upgradeable",
          "name": "token",
          "type": "address"
        },
        {
          "internalType": "address",
          "name": "account",
          "type": "address"
        }
      ],
      "name": "release",
      "outputs": [],
      "stateMutability": "nonpayable",
      "type": "function"
    },
    {
      "inputs": [
        {
          "internalType": "contract IERC20Upgradeable",
          "name": "token",
          "type": "address"
        },
        {
          "internalType": "address",
          "name": "account",
          "type": "address"
        }
      ],
      "name": "released",
      "outputs": [
        {
          "internalType": "uint256",
          "name": "",
          "type": "uint256"
        }
      ],
      "stateMutability": "view",
      "type": "function"
    },
    {
      "inputs": [
        {
          "internalType": "address",
          "name": "account",
          "type": "address"
        }
      ],
      "name": "released",
      "outputs": [
        {
          "internalType": "uint256",
          "name": "",
          "type": "uint256"
        }
      ],
      "stateMutability": "view",
      "type": "function"
    },
    {
      "inputs": [
        {
          "internalType": "address",
          "name": "account",
          "type": "address"
        }
      ],
      "name": "shares",
      "outputs": [
        {
          "internalType": "uint256",
          "name": "",
          "type": "uint256"
        }
      ],
      "stateMutability": "view",
      "type": "function"
    },
    {
      "inputs": [
        {
          "internalType": "contract IERC20Upgradeable",
          "name": "token",
          "type": "address"
        }
      ],
      "name": "totalReleased",
      "outputs": [
        {
          "internalType": "uint256",
          "name": "",
          "type": "uint256"
        }
      ],
      "stateMutability": "view",
      "type": "function"
    },
    {
      "inputs": [],
      "name": "totalReleased",
      "outputs": [
        {
          "internalType": "uint256",
          "name": "",
          "type": "uint256"
        }
      ],
      "stateMutability": "view",
      "type": "function"
    },
    {
      "inputs": [],
      "name": "totalShares",
      "outputs": [
        {
          "internalType": "uint256",
          "name": "",
          "type": "uint256"
        }
      ],
      "stateMutability": "view",
      "type": "function"
    },
    {
      "stateMutability": "payable",
      "type": "receive"
    }
  ],
  "transactionHash": "0x912e72b9ace8e77e75a803a31e5e2ae0ac078dcf86fac1b33ffebe3e07a84315",
  "args": [],
  "numDeployments": 1,
  "solcInputHash": "c2a042d1e0f74cc44cf21e2ec1279f48",
  "bytecode": "0x608060405234801561001057600080fd5b506112f8806100206000396000f3fe6080604052600436106100ab5760003560e01c8063a3f8eace11610064578063a3f8eace14610213578063c45ac05014610233578063ce7c2ac214610253578063d79779b214610289578063e33b7de3146102bf578063eb990c59146102d457600080fd5b806319165587146100f95780633a98ef391461011b578063406072a91461013f57806348b75044146101855780638b83209b146101a55780639852595c146101dd57600080fd5b366100f4577f6ef95f06320e7a25a04a175ca677b7052bdd97131872c2192525a629f51be77033604080516001600160a01b0390921682523460208301520160405180910390a1005b600080fd5b34801561010557600080fd5b50610119610114366004610fc0565b6102f4565b005b34801561012757600080fd5b506033545b6040519081526020015b60405180910390f35b34801561014b57600080fd5b5061012c61015a366004610fdd565b6001600160a01b03918216600090815260396020908152604080832093909416825291909152205490565b34801561019157600080fd5b506101196101a0366004610fdd565b6103f4565b3480156101b157600080fd5b506101c56101c0366004611016565b610514565b6040516001600160a01b039091168152602001610136565b3480156101e957600080fd5b5061012c6101f8366004610fc0565b6001600160a01b031660009081526036602052604090205490565b34801561021f57600080fd5b5061012c61022e366004610fc0565b610544565b34801561023f57600080fd5b5061012c61024e366004610fdd565b61058c565b34801561025f57600080fd5b5061012c61026e366004610fc0565b6001600160a01b031660009081526035602052604090205490565b34801561029557600080fd5b5061012c6102a4366004610fc0565b6001600160a01b031660009081526038602052604090205490565b3480156102cb57600080fd5b5060345461012c565b3480156102e057600080fd5b506101196102ef36600461102f565b610657565b6001600160a01b0381166000908152603560205260409020546103325760405162461bcd60e51b815260040161032990611075565b60405180910390fd5b600061033d82610544565b90508061035c5760405162461bcd60e51b8152600401610329906110bb565b6001600160a01b0382166000908152603660205260408120805483929061038490849061111c565b92505081905550806034600082825461039d919061111c565b909155506103ad9050828261085d565b604080516001600160a01b0384168152602081018390527fdf20fd1e76bc69d672e4814fafb2c449bba3a5369d8359adf9e05e6fde87b05691015b60405180910390a15050565b6001600160a01b0381166000908152603560205260409020546104295760405162461bcd60e51b815260040161032990611075565b6000610435838361058c565b9050806104545760405162461bcd60e51b8152600401610329906110bb565b6001600160a01b0380841660009081526039602090815260408083209386168352929052908120805483929061048b90849061111c565b90915550506001600160a01b038316600090815260386020526040812080548392906104b890849061111c565b909155506104c9905083838361097b565b604080516001600160a01b038481168252602082018490528516917f3be5b7a71e84ed12875d241991c70855ac5817d847039e17a9d895c1ceb0f18a910160405180910390a2505050565b60006037828154811061052957610529611134565b6000918252602090912001546001600160a01b031692915050565b60008061055060345490565b61055a904761111c565b90506105858382610580866001600160a01b031660009081526036602052604090205490565b6109cd565b9392505050565b6001600160a01b03821660009081526038602052604081205481906040516370a0823160e01b81523060048201526001600160a01b038616906370a0823190602401602060405180830381865afa1580156105eb573d6000803e3d6000fd5b505050506040513d601f19601f8201168201806040525081019061060f919061114a565b610619919061111c565b6001600160a01b0380861660009081526039602090815260408083209388168352929052205490915061064f90849083906109cd565b949350505050565b600054610100900460ff16158080156106775750600054600160ff909116105b806106915750303b158015610691575060005460ff166001145b6106f45760405162461bcd60e51b815260206004820152602e60248201527f496e697469616c697a61626c653a20636f6e747261637420697320616c72656160448201526d191e481a5b9a5d1a585b1a5e995960921b6064820152608401610329565b6000805460ff191660011790558015610717576000805461ff0019166101001790555b604080516002808252606082018352600092602083019080368337505060408051600280825260608201835293945060009390925090602083019080368337019050509050868260008151811061077057610770611134565b60200260200101906001600160a01b031690816001600160a01b03168152505085826001815181106107a4576107a4611134565b60200260200101906001600160a01b031690816001600160a01b03168152505084816000815181106107d8576107d8611134565b60200260200101818152505083816001815181106107f8576107f8611134565b60200260200101818152505061080e8282610a0b565b50508015610856576000805461ff0019169055604051600181527f7f26b83ff96e1f2b6a682f133852f6798a09c465da95921460cefb38474024989060200160405180910390a15b5050505050565b804710156108ad5760405162461bcd60e51b815260206004820152601d60248201527f416464726573733a20696e73756666696369656e742062616c616e63650000006044820152606401610329565b6000826001600160a01b03168260405160006040518083038185875af1925050503d80600081146108fa576040519150601f19603f3d011682016040523d82523d6000602084013e6108ff565b606091505b50509050806109765760405162461bcd60e51b815260206004820152603a60248201527f416464726573733a20756e61626c6520746f2073656e642076616c75652c207260448201527f6563697069656e74206d617920686176652072657665727465640000000000006064820152608401610329565b505050565b604080516001600160a01b038416602482015260448082018490528251808303909101815260649091019091526020810180516001600160e01b031663a9059cbb60e01b179052610976908490610a40565b6033546001600160a01b038416600090815260356020526040812054909183916109f79086611163565b610a019190611182565b61064f91906111a4565b600054610100900460ff16610a325760405162461bcd60e51b8152600401610329906111bb565b610a3c8282610b12565b5050565b6000610a95826040518060400160405280602081526020017f5361666545524332303a206c6f772d6c6576656c2063616c6c206661696c6564815250856001600160a01b0316610c509092919063ffffffff16565b8051909150156109765780806020019051810190610ab39190611206565b6109765760405162461bcd60e51b815260206004820152602a60248201527f5361666545524332303a204552433230206f7065726174696f6e20646964206e6044820152691bdd081cdd58d8d9595960b21b6064820152608401610329565b600054610100900460ff16610b395760405162461bcd60e51b8152600401610329906111bb565b8051825114610ba55760405162461bcd60e51b815260206004820152603260248201527f5061796d656e7453706c69747465723a2070617965657320616e6420736861726044820152710cae640d8cadccee8d040dad2e6dac2e8c6d60731b6064820152608401610329565b6000825111610bf65760405162461bcd60e51b815260206004820152601a60248201527f5061796d656e7453706c69747465723a206e6f207061796565730000000000006044820152606401610329565b60005b825181101561097657610c3e838281518110610c1757610c17611134565b6020026020010151838381518110610c3157610c31611134565b6020026020010151610c5f565b80610c4881611228565b915050610bf9565b606061064f8484600085610e3e565b6001600160a01b038216610cca5760405162461bcd60e51b815260206004820152602c60248201527f5061796d656e7453706c69747465723a206163636f756e74206973207468652060448201526b7a65726f206164647265737360a01b6064820152608401610329565b60008111610d1a5760405162461bcd60e51b815260206004820152601d60248201527f5061796d656e7453706c69747465723a207368617265732061726520300000006044820152606401610329565b6001600160a01b03821660009081526035602052604090205415610d945760405162461bcd60e51b815260206004820152602b60248201527f5061796d656e7453706c69747465723a206163636f756e7420616c726561647960448201526a206861732073686172657360a81b6064820152608401610329565b60378054600181019091557f42a7b7dd785cd69714a189dffb3fd7d7174edc9ece837694ce50f7078f7c31ae0180546001600160a01b0319166001600160a01b0384169081179091556000908152603560205260409020819055603354610dfc90829061111c565b603355604080516001600160a01b0384168152602081018390527f40c340f65e17194d14ddddb073d3c9f888e3cb52b5aae0c6c7706b4fbc905fac91016103e8565b606082471015610e9f5760405162461bcd60e51b815260206004820152602660248201527f416464726573733a20696e73756666696369656e742062616c616e636520666f6044820152651c8818d85b1b60d21b6064820152608401610329565b6001600160a01b0385163b610ef65760405162461bcd60e51b815260206004820152601d60248201527f416464726573733a2063616c6c20746f206e6f6e2d636f6e74726163740000006044820152606401610329565b600080866001600160a01b03168587604051610f129190611273565b60006040518083038185875af1925050503d8060008114610f4f576040519150601f19603f3d011682016040523d82523d6000602084013e610f54565b606091505b5091509150610f64828286610f6f565b979650505050505050565b60608315610f7e575081610585565b825115610f8e5782518084602001fd5b8160405162461bcd60e51b8152600401610329919061128f565b6001600160a01b0381168114610fbd57600080fd5b50565b600060208284031215610fd257600080fd5b813561058581610fa8565b60008060408385031215610ff057600080fd5b8235610ffb81610fa8565b9150602083013561100b81610fa8565b809150509250929050565b60006020828403121561102857600080fd5b5035919050565b6000806000806080858703121561104557600080fd5b843561105081610fa8565b9350602085013561106081610fa8565b93969395505050506040820135916060013590565b60208082526026908201527f5061796d656e7453706c69747465723a206163636f756e7420686173206e6f2060408201526573686172657360d01b606082015260800190565b6020808252602b908201527f5061796d656e7453706c69747465723a206163636f756e74206973206e6f742060408201526a191d59481c185e5b595b9d60aa1b606082015260800190565b634e487b7160e01b600052601160045260246000fd5b6000821982111561112f5761112f611106565b500190565b634e487b7160e01b600052603260045260246000fd5b60006020828403121561115c57600080fd5b5051919050565b600081600019048311821515161561117d5761117d611106565b500290565b60008261119f57634e487b7160e01b600052601260045260246000fd5b500490565b6000828210156111b6576111b6611106565b500390565b6020808252602b908201527f496e697469616c697a61626c653a20636f6e7472616374206973206e6f74206960408201526a6e697469616c697a696e6760a81b606082015260800190565b60006020828403121561121857600080fd5b8151801515811461058557600080fd5b600060001982141561123c5761123c611106565b5060010190565b60005b8381101561125e578181015183820152602001611246565b8381111561126d576000848401525b50505050565b60008251611285818460208701611243565b9190910192915050565b60208152600082518060208401526112ae816040850160208701611243565b601f01601f1916919091016040019291505056fea2646970667358221220e370000215ecfaf6b4a59466f0cb4d5c71956b3dafb64f46d30c56f56770d73b64736f6c634300080a0033",
  "devdoc": {
    "kind": "dev",
    "methods": {
      "payee(uint256)": {
        "details": "Getter for the address of the payee number `index`."
      },
      "releasable(address)": {
        "details": "Getter for the amount of payee's releasable Ether."
      },
      "releasable(address,address)": {
        "details": "Getter for the amount of payee's releasable `token` tokens. `token` should be the address of an IERC20 contract."
      },
      "release(address)": {
        "details": "Triggers a transfer to `account` of the amount of Ether they are owed, according to their percentage of the total shares and their previous withdrawals."
      },
      "release(address,address)": {
        "details": "Triggers a transfer to `account` of the amount of `token` tokens they are owed, according to their percentage of the total shares and their previous withdrawals. `token` must be the address of an IERC20 contract."
      },
      "released(address)": {
        "details": "Getter for the amount of Ether already released to a payee."
      },
      "released(address,address)": {
        "details": "Getter for the amount of `token` tokens already released to a payee. `token` should be the address of an IERC20 contract."
      },
      "shares(address)": {
        "details": "Getter for the amount of shares held by an account."
      },
      "totalReleased()": {
        "details": "Getter for the total amount of Ether already released."
      },
      "totalReleased(address)": {
        "details": "Getter for the total amount of `token` already released. `token` should be the address of an IERC20 contract."
      },
      "totalShares()": {
        "details": "Getter for the total shares held by payees."
      }
    },
    "version": 1
  },
  "userdoc": {
    "kind": "user",
    "methods": {},
    "version": 1
  },
  "storageLayout": {
    "storage": [
      {
        "astId": 504,
        "contract": "contracts/FeeSplitter.sol:FeeSplitter",
        "label": "_initialized",
        "offset": 0,
        "slot": "0",
        "type": "t_uint8"
      },
      {
        "astId": 507,
        "contract": "contracts/FeeSplitter.sol:FeeSplitter",
        "label": "_initializing",
        "offset": 1,
        "slot": "0",
        "type": "t_bool"
      },
      {
        "astId": 1327,
        "contract": "contracts/FeeSplitter.sol:FeeSplitter",
        "label": "__gap",
        "offset": 0,
        "slot": "1",
        "type": "t_array(t_uint256)50_storage"
      },
      {
        "astId": 39,
        "contract": "contracts/FeeSplitter.sol:FeeSplitter",
        "label": "_totalShares",
        "offset": 0,
        "slot": "51",
        "type": "t_uint256"
      },
      {
        "astId": 41,
        "contract": "contracts/FeeSplitter.sol:FeeSplitter",
        "label": "_totalReleased",
        "offset": 0,
        "slot": "52",
        "type": "t_uint256"
      },
      {
        "astId": 45,
        "contract": "contracts/FeeSplitter.sol:FeeSplitter",
        "label": "_shares",
        "offset": 0,
        "slot": "53",
        "type": "t_mapping(t_address,t_uint256)"
      },
      {
        "astId": 49,
        "contract": "contracts/FeeSplitter.sol:FeeSplitter",
        "label": "_released",
        "offset": 0,
        "slot": "54",
        "type": "t_mapping(t_address,t_uint256)"
      },
      {
        "astId": 52,
        "contract": "contracts/FeeSplitter.sol:FeeSplitter",
        "label": "_payees",
        "offset": 0,
        "slot": "55",
        "type": "t_array(t_address)dyn_storage"
      },
      {
        "astId": 57,
        "contract": "contracts/FeeSplitter.sol:FeeSplitter",
        "label": "_erc20TotalReleased",
        "offset": 0,
        "slot": "56",
        "type": "t_mapping(t_contract(IERC20Upgradeable)726,t_uint256)"
      },
      {
        "astId": 64,
        "contract": "contracts/FeeSplitter.sol:FeeSplitter",
        "label": "_erc20Released",
        "offset": 0,
        "slot": "57",
        "type": "t_mapping(t_contract(IERC20Upgradeable)726,t_mapping(t_address,t_uint256))"
      },
      {
        "astId": 496,
        "contract": "contracts/FeeSplitter.sol:FeeSplitter",
        "label": "__gap",
        "offset": 0,
        "slot": "58",
        "type": "t_array(t_uint256)43_storage"
      }
    ],
    "types": {
      "t_address": {
        "encoding": "inplace",
        "label": "address",
        "numberOfBytes": "20"
      },
      "t_array(t_address)dyn_storage": {
        "base": "t_address",
        "encoding": "dynamic_array",
        "label": "address[]",
        "numberOfBytes": "32"
      },
      "t_array(t_uint256)43_storage": {
        "base": "t_uint256",
        "encoding": "inplace",
        "label": "uint256[43]",
        "numberOfBytes": "1376"
      },
      "t_array(t_uint256)50_storage": {
        "base": "t_uint256",
        "encoding": "inplace",
        "label": "uint256[50]",
        "numberOfBytes": "1600"
      },
      "t_bool": {
        "encoding": "inplace",
        "label": "bool",
        "numberOfBytes": "1"
      },
      "t_contract(IERC20Upgradeable)726": {
        "encoding": "inplace",
        "label": "contract IERC20Upgradeable",
        "numberOfBytes": "20"
      },
      "t_mapping(t_address,t_uint256)": {
        "encoding": "mapping",
        "key": "t_address",
        "label": "mapping(address => uint256)",
        "numberOfBytes": "32",
        "value": "t_uint256"
      },
      "t_mapping(t_contract(IERC20Upgradeable)726,t_mapping(t_address,t_uint256))": {
        "encoding": "mapping",
        "key": "t_contract(IERC20Upgradeable)726",
        "label": "mapping(contract IERC20Upgradeable => mapping(address => uint256))",
        "numberOfBytes": "32",
        "value": "t_mapping(t_address,t_uint256)"
      },
      "t_mapping(t_contract(IERC20Upgradeable)726,t_uint256)": {
        "encoding": "mapping",
        "key": "t_contract(IERC20Upgradeable)726",
        "label": "mapping(contract IERC20Upgradeable => uint256)",
        "numberOfBytes": "32",
        "value": "t_uint256"
      },
      "t_uint256": {
        "encoding": "inplace",
        "label": "uint256",
        "numberOfBytes": "32"
      },
      "t_uint8": {
        "encoding": "inplace",
        "label": "uint8",
        "numberOfBytes": "1"
      }
    }
  }
}