{
  "address": "0x44Ef544cfD34f89F8451C5D5e575695122E76f4c",
  "abi": [
    {
      "inputs": [
        {
          "internalType": "contract IMasterChef",
          "name": "_MASTER_CHEF",
          "type": "address"
        },
        {
          "internalType": "contract IERC20",
          "name": "_sushi",
          "type": "address"
        },
        {
          "internalType": "uint256",
          "name": "_MASTER_PID",
          "type": "uint256"
        }
      ],
      "stateMutability": "nonpayable",
      "type": "constructor"
    },
    {
      "anonymous": false,
      "inputs": [
        {
          "indexed": true,
          "internalType": "address",
          "name": "user",
          "type": "address"
        },
        {
          "indexed": true,
          "internalType": "uint256",
          "name": "pid",
          "type": "uint256"
        },
        {
          "indexed": false,
          "internalType": "uint256",
          "name": "amount",
          "type": "uint256"
        },
        {
          "indexed": true,
          "internalType": "address",
          "name": "to",
          "type": "address"
        }
      ],
      "name": "Deposit",
      "type": "event"
    },
    {
      "anonymous": false,
      "inputs": [
        {
          "indexed": true,
          "internalType": "address",
          "name": "user",
          "type": "address"
        },
        {
          "indexed": true,
          "internalType": "uint256",
          "name": "pid",
          "type": "uint256"
        },
        {
          "indexed": false,
          "internalType": "uint256",
          "name": "amount",
          "type": "uint256"
        },
        {
          "indexed": true,
          "internalType": "address",
          "name": "to",
          "type": "address"
        }
      ],
      "name": "EmergencyWithdraw",
      "type": "event"
    },
    {
      "anonymous": false,
      "inputs": [
        {
          "indexed": true,
          "internalType": "address",
          "name": "user",
          "type": "address"
        },
        {
          "indexed": true,
          "internalType": "uint256",
          "name": "pid",
          "type": "uint256"
        },
        {
          "indexed": false,
          "internalType": "uint256",
          "name": "amount",
          "type": "uint256"
        }
      ],
      "name": "Harvest",
      "type": "event"
    },
    {
      "anonymous": false,
      "inputs": [],
      "name": "LogInit",
      "type": "event"
    },
    {
      "anonymous": false,
      "inputs": [
        {
          "indexed": true,
          "internalType": "uint256",
          "name": "pid",
          "type": "uint256"
        },
        {
          "indexed": false,
          "internalType": "uint256",
          "name": "allocPoint",
          "type": "uint256"
        },
        {
          "indexed": true,
          "internalType": "contract IERC20",
          "name": "lpToken",
          "type": "address"
        },
        {
          "indexed": true,
          "internalType": "contract IRewarder",
          "name": "rewarder",
          "type": "address"
        }
      ],
      "name": "LogPoolAddition",
      "type": "event"
    },
    {
      "anonymous": false,
      "inputs": [
        {
          "indexed": true,
          "internalType": "uint256",
          "name": "pid",
          "type": "uint256"
        },
        {
          "indexed": false,
          "internalType": "uint256",
          "name": "allocPoint",
          "type": "uint256"
        },
        {
          "indexed": true,
          "internalType": "contract IRewarder",
          "name": "rewarder",
          "type": "address"
        },
        {
          "indexed": false,
          "internalType": "bool",
          "name": "overwrite",
          "type": "bool"
        }
      ],
      "name": "LogSetPool",
      "type": "event"
    },
    {
      "anonymous": false,
      "inputs": [
        {
          "indexed": true,
          "internalType": "uint256",
          "name": "pid",
          "type": "uint256"
        },
        {
          "indexed": false,
          "internalType": "uint64",
          "name": "lastRewardBlock",
          "type": "uint64"
        },
        {
          "indexed": false,
          "internalType": "uint256",
          "name": "lpSupply",
          "type": "uint256"
        },
        {
          "indexed": false,
          "internalType": "uint256",
          "name": "accSushiPerShare",
          "type": "uint256"
        }
      ],
      "name": "LogUpdatePool",
      "type": "event"
    },
    {
      "anonymous": false,
      "inputs": [
        {
          "indexed": true,
          "internalType": "address",
          "name": "previousOwner",
          "type": "address"
        },
        {
          "indexed": true,
          "internalType": "address",
          "name": "newOwner",
          "type": "address"
        }
      ],
      "name": "OwnershipTransferred",
      "type": "event"
    },
    {
      "anonymous": false,
      "inputs": [
        {
          "indexed": true,
          "internalType": "address",
          "name": "user",
          "type": "address"
        },
        {
          "indexed": true,
          "internalType": "uint256",
          "name": "pid",
          "type": "uint256"
        },
        {
          "indexed": false,
          "internalType": "uint256",
          "name": "amount",
          "type": "uint256"
        },
        {
          "indexed": true,
          "internalType": "address",
          "name": "to",
          "type": "address"
        }
      ],
      "name": "Withdraw",
      "type": "event"
    },
    {
      "inputs": [],
      "name": "MASTER_CHEF",
      "outputs": [
        {
          "internalType": "contract IMasterChef",
          "name": "",
          "type": "address"
        }
      ],
      "stateMutability": "view",
      "type": "function"
    },
    {
      "inputs": [],
      "name": "MASTER_PID",
      "outputs": [
        {
          "internalType": "uint256",
          "name": "",
          "type": "uint256"
        }
      ],
      "stateMutability": "view",
      "type": "function"
    },
    {
      "inputs": [],
      "name": "SUSHI",
      "outputs": [
        {
          "internalType": "contract IERC20",
          "name": "",
          "type": "address"
        }
      ],
      "stateMutability": "view",
      "type": "function"
    },
    {
      "inputs": [
        {
          "internalType": "uint256",
          "name": "allocPoint",
          "type": "uint256"
        },
        {
          "internalType": "contract IERC20",
          "name": "_lpToken",
          "type": "address"
        },
        {
          "internalType": "contract IRewarder",
          "name": "_rewarder",
          "type": "address"
        }
      ],
      "name": "add",
      "outputs": [],
      "stateMutability": "nonpayable",
      "type": "function"
    },
    {
      "inputs": [
        {
          "internalType": "bytes[]",
          "name": "calls",
          "type": "bytes[]"
        },
        {
          "internalType": "bool",
          "name": "revertOnFail",
          "type": "bool"
        }
      ],
      "name": "batch",
      "outputs": [
        {
          "internalType": "bool[]",
          "name": "successes",
          "type": "bool[]"
        },
        {
          "internalType": "bytes[]",
          "name": "results",
          "type": "bytes[]"
        }
      ],
      "stateMutability": "payable",
      "type": "function"
    },
    {
      "inputs": [],
      "name": "claimOwnership",
      "outputs": [],
      "stateMutability": "nonpayable",
      "type": "function"
    },
    {
      "inputs": [
        {
          "internalType": "uint256",
          "name": "pid",
          "type": "uint256"
        },
        {
          "internalType": "uint256",
          "name": "amount",
          "type": "uint256"
        },
        {
          "internalType": "address",
          "name": "to",
          "type": "address"
        }
      ],
      "name": "deposit",
      "outputs": [],
      "stateMutability": "nonpayable",
      "type": "function"
    },
    {
      "inputs": [
        {
          "internalType": "uint256",
          "name": "pid",
          "type": "uint256"
        },
        {
          "internalType": "address",
          "name": "to",
          "type": "address"
        }
      ],
      "name": "emergencyWithdraw",
      "outputs": [],
      "stateMutability": "nonpayable",
      "type": "function"
    },
    {
      "inputs": [
        {
          "internalType": "uint256",
          "name": "pid",
          "type": "uint256"
        },
        {
          "internalType": "address",
          "name": "to",
          "type": "address"
        }
      ],
      "name": "harvest",
      "outputs": [],
      "stateMutability": "nonpayable",
      "type": "function"
    },
    {
      "inputs": [],
      "name": "harvestFromMasterChef",
      "outputs": [],
      "stateMutability": "nonpayable",
      "type": "function"
    },
    {
      "inputs": [
        {
          "internalType": "contract IERC20",
          "name": "dummyToken",
          "type": "address"
        }
      ],
      "name": "init",
      "outputs": [],
      "stateMutability": "nonpayable",
      "type": "function"
    },
    {
      "inputs": [
        {
          "internalType": "uint256",
          "name": "",
          "type": "uint256"
        }
      ],
      "name": "lpToken",
      "outputs": [
        {
          "internalType": "contract IERC20",
          "name": "",
          "type": "address"
        }
      ],
      "stateMutability": "view",
      "type": "function"
    },
    {
      "inputs": [
        {
          "internalType": "uint256[]",
          "name": "pids",
          "type": "uint256[]"
        }
      ],
      "name": "massUpdatePools",
      "outputs": [],
      "stateMutability": "nonpayable",
      "type": "function"
    },
    {
      "inputs": [
        {
          "internalType": "uint256",
          "name": "_pid",
          "type": "uint256"
        }
      ],
      "name": "migrate",
      "outputs": [],
      "stateMutability": "nonpayable",
      "type": "function"
    },
    {
      "inputs": [],
      "name": "migrator",
      "outputs": [
        {
          "internalType": "contract IMigratorChef",
          "name": "",
          "type": "address"
        }
      ],
      "stateMutability": "view",
      "type": "function"
    },
    {
      "inputs": [],
      "name": "owner",
      "outputs": [
        {
          "internalType": "address",
          "name": "",
          "type": "address"
        }
      ],
      "stateMutability": "view",
      "type": "function"
    },
    {
      "inputs": [],
      "name": "pendingOwner",
      "outputs": [
        {
          "internalType": "address",
          "name": "",
          "type": "address"
        }
      ],
      "stateMutability": "view",
      "type": "function"
    },
    {
      "inputs": [
        {
          "internalType": "uint256",
          "name": "_pid",
          "type": "uint256"
        },
        {
          "internalType": "address",
          "name": "_user",
          "type": "address"
        }
      ],
      "name": "pendingSushi",
      "outputs": [
        {
          "internalType": "uint256",
          "name": "pending",
          "type": "uint256"
        }
      ],
      "stateMutability": "view",
      "type": "function"
    },
    {
      "inputs": [
        {
          "internalType": "contract IERC20",
          "name": "token",
          "type": "address"
        },
        {
          "internalType": "address",
          "name": "from",
          "type": "address"
        },
        {
          "internalType": "address",
          "name": "to",
          "type": "address"
        },
        {
          "internalType": "uint256",
          "name": "amount",
          "type": "uint256"
        },
        {
          "internalType": "uint256",
          "name": "deadline",
          "type": "uint256"
        },
        {
          "internalType": "uint8",
          "name": "v",
          "type": "uint8"
        },
        {
          "internalType": "bytes32",
          "name": "r",
          "type": "bytes32"
        },
        {
          "internalType": "bytes32",
          "name": "s",
          "type": "bytes32"
        }
      ],
      "name": "permitToken",
      "outputs": [],
      "stateMutability": "nonpayable",
      "type": "function"
    },
    {
      "inputs": [
        {
          "internalType": "uint256",
          "name": "",
          "type": "uint256"
        }
      ],
      "name": "poolInfo",
      "outputs": [
        {
          "internalType": "uint128",
          "name": "accSushiPerShare",
          "type": "uint128"
        },
        {
          "internalType": "uint64",
          "name": "lastRewardBlock",
          "type": "uint64"
        },
        {
          "internalType": "uint64",
          "name": "allocPoint",
          "type": "uint64"
        }
      ],
      "stateMutability": "view",
      "type": "function"
    },
    {
      "inputs": [],
      "name": "poolLength",
      "outputs": [
        {
          "internalType": "uint256",
          "name": "pools",
          "type": "uint256"
        }
      ],
      "stateMutability": "view",
      "type": "function"
    },
    {
      "inputs": [
        {
          "internalType": "uint256",
          "name": "",
          "type": "uint256"
        }
      ],
      "name": "rewarder",
      "outputs": [
        {
          "internalType": "contract IRewarder",
          "name": "",
          "type": "address"
        }
      ],
      "stateMutability": "view",
      "type": "function"
    },
    {
      "inputs": [
        {
          "internalType": "uint256",
          "name": "_pid",
          "type": "uint256"
        },
        {
          "internalType": "uint256",
          "name": "_allocPoint",
          "type": "uint256"
        },
        {
          "internalType": "contract IRewarder",
          "name": "_rewarder",
          "type": "address"
        },
        {
          "internalType": "bool",
          "name": "overwrite",
          "type": "bool"
        }
      ],
      "name": "set",
      "outputs": [],
      "stateMutability": "nonpayable",
      "type": "function"
    },
    {
      "inputs": [
        {
          "internalType": "contract IMigratorChef",
          "name": "_migrator",
          "type": "address"
        }
      ],
      "name": "setMigrator",
      "outputs": [],
      "stateMutability": "nonpayable",
      "type": "function"
    },
    {
      "inputs": [],
      "name": "sushiPerBlock",
      "outputs": [
        {
          "internalType": "uint256",
          "name": "amount",
          "type": "uint256"
        }
      ],
      "stateMutability": "view",
      "type": "function"
    },
    {
      "inputs": [],
      "name": "totalAllocPoint",
      "outputs": [
        {
          "internalType": "uint256",
          "name": "",
          "type": "uint256"
        }
      ],
      "stateMutability": "view",
      "type": "function"
    },
    {
      "inputs": [
        {
          "internalType": "address",
          "name": "newOwner",
          "type": "address"
        },
        {
          "internalType": "bool",
          "name": "direct",
          "type": "bool"
        },
        {
          "internalType": "bool",
          "name": "renounce",
          "type": "bool"
        }
      ],
      "name": "transferOwnership",
      "outputs": [],
      "stateMutability": "nonpayable",
      "type": "function"
    },
    {
      "inputs": [
        {
          "internalType": "uint256",
          "name": "pid",
          "type": "uint256"
        }
      ],
      "name": "updatePool",
      "outputs": [
        {
          "components": [
            {
              "internalType": "uint128",
              "name": "accSushiPerShare",
              "type": "uint128"
            },
            {
              "internalType": "uint64",
              "name": "lastRewardBlock",
              "type": "uint64"
            },
            {
              "internalType": "uint64",
              "name": "allocPoint",
              "type": "uint64"
            }
          ],
          "internalType": "struct MasterChefV2.PoolInfo",
          "name": "pool",
          "type": "tuple"
        }
      ],
      "stateMutability": "nonpayable",
      "type": "function"
    },
    {
      "inputs": [
        {
          "internalType": "uint256",
          "name": "",
          "type": "uint256"
        },
        {
          "internalType": "address",
          "name": "",
          "type": "address"
        }
      ],
      "name": "userInfo",
      "outputs": [
        {
          "internalType": "uint256",
          "name": "amount",
          "type": "uint256"
        },
        {
          "internalType": "int256",
          "name": "rewardDebt",
          "type": "int256"
        }
      ],
      "stateMutability": "view",
      "type": "function"
    },
    {
      "inputs": [
        {
          "internalType": "uint256",
          "name": "pid",
          "type": "uint256"
        },
        {
          "internalType": "uint256",
          "name": "amount",
          "type": "uint256"
        },
        {
          "internalType": "address",
          "name": "to",
          "type": "address"
        }
      ],
      "name": "withdraw",
      "outputs": [],
      "stateMutability": "nonpayable",
      "type": "function"
    },
    {
      "inputs": [
        {
          "internalType": "uint256",
          "name": "pid",
          "type": "uint256"
        },
        {
          "internalType": "uint256",
          "name": "amount",
          "type": "uint256"
        },
        {
          "internalType": "address",
          "name": "to",
          "type": "address"
        }
      ],
      "name": "withdrawAndHarvest",
      "outputs": [],
      "stateMutability": "nonpayable",
      "type": "function"
    }
  ],
  "transactionHash": "0xa7fe9ae56b83753fd4e29d7e5dae8850152da6f893cccf6ec3c2e83d3765ae7d",
  "args": [
    "0xC1C85C2C714C09B5feCe7Aa0714Cbdaf607F6e7d",
    "0x5415df2833B5735db4F135fD240D6752678C9773",
    1
  ],
  "numDeployments": 1,
  "solcInputHash": "f9e2008d3443ff608c8d4fb064ce7a9a",
  "bytecode": "0x60e06040523480156200001157600080fd5b5060405162003ca538038062003ca5833981016040819052620000349162000097565b600080546001600160a01b0319163390811782556040519091907f8be0079c531659141344cd1fd0a4f28419497f9722a3daafe3b4186f6b6457e0908290a36001600160601b0319606093841b81166080529190921b1660a05260c052620000f7565b600080600060608486031215620000ac578283fd5b8351620000b981620000de565b6020850151909350620000cc81620000de565b80925050604084015190509250925092565b6001600160a01b0381168114620000f457600080fd5b50565b60805160601c60a05160601c60c051613b496200015c6000398061101552806117935280611b6e5280612463525080610a3f528061209752806125f6525080610f2e5280610fe8528061176652806123595280612436528061297f5250613b496000f3fe6080604052600436106101d85760003560e01c806361621aaa11610102578063ab560e1011610095578063d1abb90711610064578063d1abb90714610529578063d2423b5114610549578063e30c39781461056a578063edd8b1701461057f576101d8565b8063ab560e10146104bf578063ab7de098146104d4578063b0bcf42a146104f4578063c346253d14610509576101d8565b806388bba42f116100d157806388bba42f1461043c5780638da5cb5b1461045c5780638dbdbe6d1461047157806393f1a40b14610491576101d8565b806361621aaa146103c557806378ed5d1f146103da5780637c516e94146104075780637cd07e4714610427576101d8565b806319ab453c1161017a5780634e71e0c8116101495780634e71e0c81461034e5780634f70b15a1461036357806351eb05a61461037857806357a5b58c146103a5576101d8565b806319ab453c146102ce57806323cf3118146102ee5780632f940c701461030e578063454b06081461032e576101d8565b80631526fe27116101b65780631526fe271461024a57806317caf6f11461027957806318fccc761461028e578063195426ec146102ae576101d8565b8063078dfbe7146101dd578063081e3eda146101ff5780630ad58d2f1461022a575b600080fd5b3480156101e957600080fd5b506101fd6101f8366004612f7b565b610594565b005b34801561020b57600080fd5b50610214610728565b6040516102219190613993565b60405180910390f35b34801561023657600080fd5b506101fd6102453660046132bb565b61072e565b34801561025657600080fd5b5061026a610265366004613226565b610921565b6040516102219392919061395f565b34801561028557600080fd5b5061021461098f565b34801561029a57600080fd5b506101fd6102a9366004613256565b610995565b3480156102ba57600080fd5b506102146102c9366004613256565b610b85565b3480156102da57600080fd5b506101fd6102e936600461306b565b610de4565b3480156102fa57600080fd5b506101fd61030936600461306b565b61109e565b34801561031a57600080fd5b506101fd610329366004613256565b611136565b34801561033a57600080fd5b506101fd610349366004613226565b6112a4565b34801561035a57600080fd5b506101fd611643565b34801561036f57600080fd5b506101fd611729565b34801561038457600080fd5b50610398610393366004613226565b6117f2565b604051610221919061391c565b3480156103b157600080fd5b506101fd6103c036600461300f565b611b3c565b3480156103d157600080fd5b50610214611b6c565b3480156103e657600080fd5b506103fa6103f5366004613226565b611b90565b60405161022191906133a7565b34801561041357600080fd5b506101fd6104223660046130a3565b611bc4565b34801561043357600080fd5b506103fa611c5e565b34801561044857600080fd5b506101fd6104573660046132e8565b611c7a565b34801561046857600080fd5b506103fa611e5a565b34801561047d57600080fd5b506101fd61048c3660046132bb565b611e76565b34801561049d57600080fd5b506104b16104ac366004613256565b612071565b6040516102219291906139e8565b3480156104cb57600080fd5b506103fa612095565b3480156104e057600080fd5b506101fd6104ef366004613285565b6120b9565b34801561050057600080fd5b50610214612355565b34801561051557600080fd5b506103fa610524366004613226565b6124fc565b34801561053557600080fd5b506101fd6105443660046132bb565b612509565b61055c610557366004612fc5565b6127b5565b60405161022192919061346d565b34801561057657600080fd5b506103fa612961565b34801561058b57600080fd5b506103fa61297d565b60005473ffffffffffffffffffffffffffffffffffffffff1633146105ee576040517f08c379a00000000000000000000000000000000000000000000000000000000081526004016105e59061377b565b60405180910390fd5b81156106e25773ffffffffffffffffffffffffffffffffffffffff83161515806106155750805b61064b576040517f08c379a00000000000000000000000000000000000000000000000000000000081526004016105e590613679565b6000805460405173ffffffffffffffffffffffffffffffffffffffff808716939216917f8be0079c531659141344cd1fd0a4f28419497f9722a3daafe3b4186f6b6457e091a36000805473ffffffffffffffffffffffffffffffffffffffff85167fffffffffffffffffffffffff000000000000000000000000000000000000000091821617909155600180549091169055610723565b600180547fffffffffffffffffffffffff00000000000000000000000000000000000000001673ffffffffffffffffffffffffffffffffffffffff85161790555b505050565b60035490565b610736612f12565b61073f846117f2565b6000858152600660209081526040808320338452909152902081519192509061079a9064e8d4a51000906107869087906fffffffffffffffffffffffffffffffff166129a1565b8161078d57fe5b60018401549190046129f8565b600182015580546107ab9085612a5f565b81556005805460009190879081106107bf57fe5b60009182526020909120015473ffffffffffffffffffffffffffffffffffffffff16905080156108785781546040517f8bf6374200000000000000000000000000000000000000000000000000000000815273ffffffffffffffffffffffffffffffffffffffff831691638bf6374291610845918a9133918a916000919060040161399c565b600060405180830381600087803b15801561085f57600080fd5b505af1158015610873573d6000803e3d6000fd5b505050505b6108b384866004898154811061088a57fe5b60009182526020909120015473ffffffffffffffffffffffffffffffffffffffff169190612a9c565b8373ffffffffffffffffffffffffffffffffffffffff16863373ffffffffffffffffffffffffffffffffffffffff167f8166bf25f8a2b7ed3c85049207da4358d16edbed977d23fa2ee6f0dde3ec2132886040516109119190613993565b60405180910390a4505050505050565b6003818154811061092e57fe5b6000918252602090912001546fffffffffffffffffffffffffffffffff8116915067ffffffffffffffff7001000000000000000000000000000000008204811691780100000000000000000000000000000000000000000000000090041683565b60075481565b61099d612f12565b6109a6836117f2565b6000848152600660209081526040808320338452909152812082518154939450909264e8d4a51000916109eb91906fffffffffffffffffffffffffffffffff166129a1565b816109f257fe5b0490506000610a16610a118460010154846129f890919063ffffffff16565b612bc6565b6001840183905590508015610a6657610a6673ffffffffffffffffffffffffffffffffffffffff7f0000000000000000000000000000000000000000000000000000000000000000168683612a9c565b600060058781548110610a7557fe5b60009182526020909120015473ffffffffffffffffffffffffffffffffffffffff1690508015610b2d5783546040517f8bf6374200000000000000000000000000000000000000000000000000000000815273ffffffffffffffffffffffffffffffffffffffff831691638bf6374291610afa918b9133918c9189919060040161399c565b600060405180830381600087803b158015610b1457600080fd5b505af1158015610b28573d6000803e3d6000fd5b505050505b863373ffffffffffffffffffffffffffffffffffffffff167f71bab65ced2e5750775a0613be067df48ef06cf92a496ebf7663ae066092495484604051610b749190613993565b60405180910390a350505050505050565b6000610b8f612f12565b60038481548110610b9c57fe5b600091825260208083206040805160608101825291909301546fffffffffffffffffffffffffffffffff808216835267ffffffffffffffff70010000000000000000000000000000000083048116848601527801000000000000000000000000000000000000000000000000909204909116828501528885526006835283852073ffffffffffffffffffffffffffffffffffffffff89168652909252918320825160048054949650919492169288908110610c5357fe5b6000918252602090912001546040517f70a0823100000000000000000000000000000000000000000000000000000000815273ffffffffffffffffffffffffffffffffffffffff909116906370a0823190610cb29030906004016133a7565b60206040518083038186803b158015610cca57600080fd5b505afa158015610cde573d6000803e3d6000fd5b505050506040513d601f19601f82011682018060405250810190610d02919061323e565b9050836020015167ffffffffffffffff1643118015610d2057508015155b15610dab576000610d48856020015167ffffffffffffffff1643612a5f90919063ffffffff16565b90506000600754610d79876040015167ffffffffffffffff16610d73610d6c612355565b86906129a1565b906129a1565b81610d8057fe5b049050610da683610d968364e8d4a510006129a1565b81610d9d57fe5b86919004612c06565b935050505b60018301548354610dd991610a119164e8d4a5100090610dcb90876129a1565b81610dd257fe5b04906129f8565b979650505050505050565b6040517f70a0823100000000000000000000000000000000000000000000000000000000815260009073ffffffffffffffffffffffffffffffffffffffff8316906370a0823190610e399033906004016133a7565b60206040518083038186803b158015610e5157600080fd5b505afa158015610e65573d6000803e3d6000fd5b505050506040513d601f19601f82011682018060405250810190610e89919061323e565b905080610ec2576040517f08c379a00000000000000000000000000000000000000000000000000000000081526004016105e590613588565b610ee473ffffffffffffffffffffffffffffffffffffffff8316333084612c43565b6040517f095ea7b300000000000000000000000000000000000000000000000000000000815273ffffffffffffffffffffffffffffffffffffffff83169063095ea7b390610f58907f0000000000000000000000000000000000000000000000000000000000000000908590600401613447565b602060405180830381600087803b158015610f7257600080fd5b505af1158015610f86573d6000803e3d6000fd5b505050506040513d601f19601f82011682018060405250810190610faa919061304f565b506040517fe2bbb15800000000000000000000000000000000000000000000000000000000815273ffffffffffffffffffffffffffffffffffffffff7f0000000000000000000000000000000000000000000000000000000000000000169063e2bbb1589061103f907f00000000000000000000000000000000000000000000000000000000000000009085906004016139e8565b600060405180830381600087803b15801561105957600080fd5b505af115801561106d573d6000803e3d6000fd5b50506040517f98a9bd3b7a617581fc53b1e2992534e0e0cb5091c9d44aa1a7fc978f706caa83925060009150a15050565b60005473ffffffffffffffffffffffffffffffffffffffff1633146110ef576040517f08c379a00000000000000000000000000000000000000000000000000000000081526004016105e59061377b565b600280547fffffffffffffffffffffffff00000000000000000000000000000000000000001673ffffffffffffffffffffffffffffffffffffffff92909216919091179055565b6000828152600660209081526040808320338452909152812080548282556001820183905560058054929391928690811061116d57fe5b60009182526020909120015473ffffffffffffffffffffffffffffffffffffffff1690508015611225576040517f8bf6374200000000000000000000000000000000000000000000000000000000815273ffffffffffffffffffffffffffffffffffffffff821690638bf63742906111f290889033908990600090819060040161399c565b600060405180830381600087803b15801561120c57600080fd5b505af1158015611220573d6000803e3d6000fd5b505050505b61123784836004888154811061088a57fe5b8373ffffffffffffffffffffffffffffffffffffffff16853373ffffffffffffffffffffffffffffffffffffffff167f2cac5e20e1541d836381527a43f651851e302817b71dc8e810284e69210c1c6b856040516112959190613993565b60405180910390a45050505050565b60025473ffffffffffffffffffffffffffffffffffffffff166112f3576040517f08c379a00000000000000000000000000000000000000000000000000000000081526004016105e59061381c565b60006004828154811061130257fe5b60009182526020822001546040517f70a0823100000000000000000000000000000000000000000000000000000000815273ffffffffffffffffffffffffffffffffffffffff909116925082906370a08231906113639030906004016133a7565b60206040518083038186803b15801561137b57600080fd5b505afa15801561138f573d6000803e3d6000fd5b505050506040513d601f19601f820116820180604052508101906113b3919061323e565b6002546040517f095ea7b300000000000000000000000000000000000000000000000000000000815291925073ffffffffffffffffffffffffffffffffffffffff8085169263095ea7b39261140e9216908590600401613447565b602060405180830381600087803b15801561142857600080fd5b505af115801561143c573d6000803e3d6000fd5b505050506040513d601f19601f82011682018060405250810190611460919061304f565b506002546040517fce5494bb00000000000000000000000000000000000000000000000000000000815260009173ffffffffffffffffffffffffffffffffffffffff169063ce5494bb906114b89086906004016133a7565b602060405180830381600087803b1580156114d257600080fd5b505af11580156114e6573d6000803e3d6000fd5b505050506040513d601f19601f8201168201806040525081019061150a9190613087565b6040517f70a0823100000000000000000000000000000000000000000000000000000000815290915073ffffffffffffffffffffffffffffffffffffffff8216906370a082319061155f9030906004016133a7565b60206040518083038186803b15801561157757600080fd5b505afa15801561158b573d6000803e3d6000fd5b505050506040513d601f19601f820116820180604052508101906115af919061323e565b82146115e7576040517f08c379a00000000000000000000000000000000000000000000000000000000081526004016105e5906136b0565b80600485815481106115f557fe5b9060005260206000200160006101000a81548173ffffffffffffffffffffffffffffffffffffffff021916908373ffffffffffffffffffffffffffffffffffffffff16021790555050505050565b60015473ffffffffffffffffffffffffffffffffffffffff16338114611695576040517f08c379a00000000000000000000000000000000000000000000000000000000081526004016105e5906137b0565b6000805460405173ffffffffffffffffffffffffffffffffffffffff808516939216917f8be0079c531659141344cd1fd0a4f28419497f9722a3daafe3b4186f6b6457e091a36000805473ffffffffffffffffffffffffffffffffffffffff9092167fffffffffffffffffffffffff0000000000000000000000000000000000000000928316179055600180549091169055565b6040517fe2bbb15800000000000000000000000000000000000000000000000000000000815273ffffffffffffffffffffffffffffffffffffffff7f0000000000000000000000000000000000000000000000000000000000000000169063e2bbb158906117be907f0000000000000000000000000000000000000000000000000000000000000000906000906004016139e8565b600060405180830381600087803b1580156117d857600080fd5b505af11580156117ec573d6000803e3d6000fd5b50505050565b6117fa612f12565b6003828154811061180757fe5b60009182526020918290206040805160608101825292909101546fffffffffffffffffffffffffffffffff8116835267ffffffffffffffff70010000000000000000000000000000000082048116948401859052780100000000000000000000000000000000000000000000000090910416908201529150431115611b375760006004838154811061189557fe5b6000918252602090912001546040517f70a0823100000000000000000000000000000000000000000000000000000000815273ffffffffffffffffffffffffffffffffffffffff909116906370a08231906118f49030906004016133a7565b60206040518083038186803b15801561190c57600080fd5b505afa158015611920573d6000803e3d6000fd5b505050506040513d601f19601f82011682018060405250810190611944919061323e565b905080156119f157600061196f836020015167ffffffffffffffff1643612a5f90919063ffffffff16565b90506000600754611993856040015167ffffffffffffffff16610d73610d6c612355565b8161199a57fe5b0490506119da6119c0846119b38464e8d4a510006129a1565b816119ba57fe5b04612d70565b85516fffffffffffffffffffffffffffffffff1690612dbc565b6fffffffffffffffffffffffffffffffff16845250505b6119fa43612e0e565b67ffffffffffffffff1660208301526003805483919085908110611a1a57fe5b6000918252602091829020835191018054848401516040958601517fffffffffffffffffffffffffffffffff000000000000000000000000000000009092166fffffffffffffffffffffffffffffffff909416939093177fffffffffffffffff0000000000000000ffffffffffffffffffffffffffffffff1670010000000000000000000000000000000067ffffffffffffffff948516021777ffffffffffffffffffffffffffffffffffffffffffffffff16780100000000000000000000000000000000000000000000000093909116929092029190911790558301518351915185927f0fc9545022a542541ad085d091fb09a2ab36fee366a4576ab63714ea907ad35392611b2d92909186916139f6565b60405180910390a2505b919050565b8060005b818110156117ec57611b63848483818110611b5757fe5b905060200201356117f2565b50600101611b40565b7f000000000000000000000000000000000000000000000000000000000000000081565b60048181548110611b9d57fe5b60009182526020909120015473ffffffffffffffffffffffffffffffffffffffff16905081565b6040517fd505accf00000000000000000000000000000000000000000000000000000000815273ffffffffffffffffffffffffffffffffffffffff89169063d505accf90611c22908a908a908a908a908a908a908a906004016133f9565b600060405180830381600087803b158015611c3c57600080fd5b505af1158015611c50573d6000803e3d6000fd5b505050505050505050505050565b60025473ffffffffffffffffffffffffffffffffffffffff1681565b60005473ffffffffffffffffffffffffffffffffffffffff163314611ccb576040517f08c379a00000000000000000000000000000000000000000000000000000000081526004016105e59061377b565b611d2083611d1a60038781548110611cdf57fe5b600091825260209091200154600754907801000000000000000000000000000000000000000000000000900467ffffffffffffffff16612a5f565b90612c06565b600755611d2c83612e0e565b60038581548110611d3957fe5b9060005260206000200160000160186101000a81548167ffffffffffffffff021916908367ffffffffffffffff1602179055508015611dc9578160058581548110611d8057fe5b9060005260206000200160006101000a81548173ffffffffffffffffffffffffffffffffffffffff021916908373ffffffffffffffffffffffffffffffffffffffff1602179055505b80611e025760058481548110611ddb57fe5b60009182526020909120015473ffffffffffffffffffffffffffffffffffffffff16611e04565b815b73ffffffffffffffffffffffffffffffffffffffff16847f95895a6ab1df54420d241b55243258a33e61b2194db66c1179ec521aae8e18658584604051611e4c9291906139d8565b60405180910390a350505050565b60005473ffffffffffffffffffffffffffffffffffffffff1681565b611e7e612f12565b611e87846117f2565b600085815260066020908152604080832073ffffffffffffffffffffffffffffffffffffffff871684529091529020805491925090611ec69085612c06565b81558151611f069064e8d4a5100090611ef29087906fffffffffffffffffffffffffffffffff166129a1565b81611ef957fe5b6001840154919004612e52565b8160010181905550600060058681548110611f1d57fe5b60009182526020909120015473ffffffffffffffffffffffffffffffffffffffff1690508015611fd65781546040517f8bf6374200000000000000000000000000000000000000000000000000000000815273ffffffffffffffffffffffffffffffffffffffff831691638bf6374291611fa3918a91899182916000919060040161399c565b600060405180830381600087803b158015611fbd57600080fd5b505af1158015611fd1573d6000803e3d6000fd5b505050505b61201333308760048a81548110611fe957fe5b60009182526020909120015473ffffffffffffffffffffffffffffffffffffffff16929190612c43565b8373ffffffffffffffffffffffffffffffffffffffff16863373ffffffffffffffffffffffffffffffffffffffff167f02d7e648dd130fc184d383e55bb126ac4c9c60e8f94bf05acdf557ba2d540b47886040516109119190613993565b60066020908152600092835260408084209091529082529020805460019091015482565b7f000000000000000000000000000000000000000000000000000000000000000081565b60005473ffffffffffffffffffffffffffffffffffffffff16331461210a576040517f08c379a00000000000000000000000000000000000000000000000000000000081526004016105e59061377b565b60075443906121199085612c06565b6007556004805460018181019092557f8a35acfbc15ff81a39ae7d344fd709f28e8600b4aa8c65c6b64bfe7fe36bd19b01805473ffffffffffffffffffffffffffffffffffffffff8087167fffffffffffffffffffffffff00000000000000000000000000000000000000009283161790925560058054938401815560009081527f036b6384b5eca791c62761152d0c79bb0604c104a5fb6f4eb0703f3154bb3db09093018054928616929091169190911790556040805160608101909152908152600390602081016121eb84612e0e565b67ffffffffffffffff16815260200161220387612e0e565b67ffffffffffffffff908116909152825460018181018555600094855260209485902084519201805495850151604090950151841678010000000000000000000000000000000000000000000000000277ffffffffffffffffffffffffffffffffffffffffffffffff95909416700100000000000000000000000000000000027fffffffffffffffff0000000000000000ffffffffffffffffffffffffffffffff6fffffffffffffffffffffffffffffffff9094167fffffffffffffffffffffffffffffffff000000000000000000000000000000009097169690961792909216949094179290921617905560045473ffffffffffffffffffffffffffffffffffffffff808516929086169161231891612a5f565b7f81ee0f8c5c46e2cb41984886f77a84181724abb86c32a5f6de539b07509d45e5876040516123479190613993565b60405180910390a450505050565b60007f000000000000000000000000000000000000000000000000000000000000000073ffffffffffffffffffffffffffffffffffffffff166317caf6f16040518163ffffffff1660e01b815260040160206040518083038186803b1580156123bd57600080fd5b505afa1580156123d1573d6000803e3d6000fd5b505050506040513d601f19601f820116820180604052508101906123f5919061323e565b6040517f1526fe270000000000000000000000000000000000000000000000000000000081526124ef9073ffffffffffffffffffffffffffffffffffffffff7f00000000000000000000000000000000000000000000000000000000000000001690631526fe279061248b907f000000000000000000000000000000000000000000000000000000000000000090600401613993565b60806040518083038186803b1580156124a357600080fd5b505afa1580156124b7573d6000803e3d6000fd5b505050506040513d601f19601f820116820180604052508101906124db91906131d4565b6020015168056bc75e2d63100000906129a1565b816124f657fe5b04905090565b60058181548110611b9d57fe5b612511612f12565b61251a846117f2565b6000858152600660209081526040808320338452909152812082518154939450909264e8d4a510009161255f91906fffffffffffffffffffffffffffffffff166129a1565b8161256657fe5b0490506000612585610a118460010154846129f890919063ffffffff16565b90506125c964e8d4a510006125b986600001516fffffffffffffffffffffffffffffffff16896129a190919063ffffffff16565b816125c057fe5b849190046129f8565b600184015582546125da9087612a5f565b835561261d73ffffffffffffffffffffffffffffffffffffffff7f0000000000000000000000000000000000000000000000000000000000000000168683612a9c565b60006005888154811061262c57fe5b60009182526020909120015473ffffffffffffffffffffffffffffffffffffffff16905080156126e45783546040517f8bf6374200000000000000000000000000000000000000000000000000000000815273ffffffffffffffffffffffffffffffffffffffff831691638bf63742916126b1918c9133918c9189919060040161399c565b600060405180830381600087803b1580156126cb57600080fd5b505af11580156126df573d6000803e3d6000fd5b505050505b6126f6868860048b8154811061088a57fe5b8573ffffffffffffffffffffffffffffffffffffffff16883373ffffffffffffffffffffffffffffffffffffffff167f8166bf25f8a2b7ed3c85049207da4358d16edbed977d23fa2ee6f0dde3ec21328a6040516127549190613993565b60405180910390a4873373ffffffffffffffffffffffffffffffffffffffff167f71bab65ced2e5750775a0613be067df48ef06cf92a496ebf7663ae0660924954846040516127a39190613993565b60405180910390a35050505050505050565b6060808367ffffffffffffffff811180156127cf57600080fd5b506040519080825280602002602001820160405280156127f9578160200160208202803683370190505b5091508367ffffffffffffffff8111801561281357600080fd5b5060405190808252806020026020018201604052801561284757816020015b60608152602001906001900390816128325790505b50905060005b8481101561295857600060603088888581811061286657fe5b90506020028101906128789190613a2a565b60405161288692919061337b565b600060405180830381855af49150503d80600081146128c1576040519150601f19603f3d011682016040523d82523d6000602084013e6128c6565b606091505b509150915081806128d5575085155b6128de82612eb2565b90612916576040517f08c379a00000000000000000000000000000000000000000000000000000000081526004016105e59190613507565b508185848151811061292457fe5b6020026020010190151590811515815250508084848151811061294357fe5b6020908102919091010152505060010161284d565b50935093915050565b60015473ffffffffffffffffffffffffffffffffffffffff1681565b7f000000000000000000000000000000000000000000000000000000000000000081565b60008115806129bc575050808202828282816129b957fe5b04145b6129f2576040517f08c379a00000000000000000000000000000000000000000000000000000000081526004016105e5906138e5565b92915050565b6000818303818312801590612a0d5750838113155b80612a225750600083128015612a2257508381135b612a58576040517f08c379a00000000000000000000000000000000000000000000000000000000081526004016105e590613853565b9392505050565b808203828111156129f2576040517f08c379a00000000000000000000000000000000000000000000000000000000081526004016105e59061351a565b600060608473ffffffffffffffffffffffffffffffffffffffff1663a9059cbb8585604051602401612acf929190613447565b6040516020818303038152906040529060e01b6020820180517bffffffffffffffffffffffffffffffffffffffffffffffffffffffff8381831617835250505050604051612b1d919061338b565b6000604051808303816000865af19150503d8060008114612b5a576040519150601f19603f3d011682016040523d82523d6000602084013e612b5f565b606091505b5091509150818015612b89575080511580612b89575080806020019051810190612b89919061304f565b612bbf576040517f08c379a00000000000000000000000000000000000000000000000000000000081526004016105e5906135e5565b5050505050565b600080821215612c02576040517f08c379a00000000000000000000000000000000000000000000000000000000081526004016105e590613551565b5090565b818101818110156129f2576040517f08c379a00000000000000000000000000000000000000000000000000000000081526004016105e590613744565b600060608573ffffffffffffffffffffffffffffffffffffffff166323b872dd868686604051602401612c78939291906133c8565b6040516020818303038152906040529060e01b6020820180517bffffffffffffffffffffffffffffffffffffffffffffffffffffffff8381831617835250505050604051612cc6919061338b565b6000604051808303816000865af19150503d8060008114612d03576040519150601f19603f3d011682016040523d82523d6000602084013e612d08565b606091505b5091509150818015612d32575080511580612d32575080806020019051810190612d32919061304f565b612d68576040517f08c379a00000000000000000000000000000000000000000000000000000000081526004016105e5906138b0565b505050505050565b60006fffffffffffffffffffffffffffffffff821115612c02576040517f08c379a00000000000000000000000000000000000000000000000000000000081526004016105e59061370d565b8181016fffffffffffffffffffffffffffffffff80831690821610156129f2576040517f08c379a00000000000000000000000000000000000000000000000000000000081526004016105e590613744565b600067ffffffffffffffff821115612c02576040517f08c379a00000000000000000000000000000000000000000000000000000000081526004016105e5906137e5565b6000828201818312801590612e675750838112155b80612e7c5750600083128015612e7c57508381125b612a58576040517f08c379a00000000000000000000000000000000000000000000000000000000081526004016105e59061361c565b6060604482511015612ef8575060408051808201909152601d81527f5472616e73616374696f6e2072657665727465642073696c656e746c790000006020820152611b37565b600482019150818060200190518101906129f2919061312a565b604080516060810182526000808252602082018190529181019190915290565b60008083601f840112612f43578182fd5b50813567ffffffffffffffff811115612f5a578182fd5b6020830191508360208083028501011115612f7457600080fd5b9250929050565b600080600060608486031215612f8f578283fd5b8335612f9a81613ae0565b92506020840135612faa81613b05565b91506040840135612fba81613b05565b809150509250925092565b600080600060408486031215612fd9578283fd5b833567ffffffffffffffff811115612fef578384fd5b612ffb86828701612f32565b9094509250506020840135612fba81613b05565b60008060208385031215613021578182fd5b823567ffffffffffffffff811115613037578283fd5b61304385828601612f32565b90969095509350505050565b600060208284031215613060578081fd5b8151612a5881613b05565b60006020828403121561307c578081fd5b8135612a5881613ae0565b600060208284031215613098578081fd5b8151612a5881613ae0565b600080600080600080600080610100898b0312156130bf578384fd5b88356130ca81613ae0565b975060208901356130da81613ae0565b965060408901356130ea81613ae0565b9550606089013594506080890135935060a089013560ff8116811461310d578384fd5b979a969950949793969295929450505060c08201359160e0013590565b60006020828403121561313b578081fd5b815167ffffffffffffffff80821115613152578283fd5b818401915084601f830112613165578283fd5b815181811115613173578384fd5b6131a460207fffffffffffffffffffffffffffffffffffffffffffffffffffffffffffffffe0601f84011601613a8d565b91508082528560208285010111156131ba578384fd5b6131cb816020840160208601613ab4565b50949350505050565b6000608082840312156131e5578081fd5b6131ef6080613a8d565b82516131fa81613ae0565b808252506020830151602082015260408301516040820152606083015160608201528091505092915050565b600060208284031215613237578081fd5b5035919050565b60006020828403121561324f578081fd5b5051919050565b60008060408385031215613268578182fd5b82359150602083013561327a81613ae0565b809150509250929050565b600080600060608486031215613299578081fd5b8335925060208401356132ab81613ae0565b91506040840135612fba81613ae0565b6000806000606084860312156132cf578081fd5b83359250602084013591506040840135612fba81613ae0565b600080600080608085870312156132fd578182fd5b8435935060208501359250604085013561331681613ae0565b9150606085013561332681613b05565b939692955090935050565b60008151808452613349816020860160208601613ab4565b601f017fffffffffffffffffffffffffffffffffffffffffffffffffffffffffffffffe0169290920160200192915050565b6000828483379101908152919050565b6000825161339d818460208701613ab4565b9190910192915050565b73ffffffffffffffffffffffffffffffffffffffff91909116815260200190565b73ffffffffffffffffffffffffffffffffffffffff9384168152919092166020820152604081019190915260600190565b73ffffffffffffffffffffffffffffffffffffffff97881681529590961660208601526040850193909352606084019190915260ff16608083015260a082015260c081019190915260e00190565b73ffffffffffffffffffffffffffffffffffffffff929092168252602082015260400190565b604080825283519082018190526000906020906060840190828701845b828110156134a857815115158452928401929084019060010161348a565b505050838103828501528085516134bf8184613993565b91508192508381028201848801865b838110156134f85785830385526134e6838351613331565b948701949250908601906001016134ce565b50909998505050505050505050565b600060208252612a586020830184613331565b60208082526015908201527f426f72696e674d6174683a20556e646572666c6f770000000000000000000000604082015260600190565b6020808252600b908201527f496e7465676572203c2030000000000000000000000000000000000000000000604082015260600190565b60208082526023908201527f4d61737465724368656656323a2042616c616e6365206d75737420657863656560408201527f6420300000000000000000000000000000000000000000000000000000000000606082015260800190565b6020808252601c908201527f426f72696e6745524332303a205472616e73666572206661696c656400000000604082015260600190565b60208082526021908201527f5369676e6564536166654d6174683a206164646974696f6e206f766572666c6f60408201527f7700000000000000000000000000000000000000000000000000000000000000606082015260800190565b60208082526015908201527f4f776e61626c653a207a65726f20616464726573730000000000000000000000604082015260600190565b60208082526029908201527f4d61737465724368656656323a206d696772617465642062616c616e6365206d60408201527f757374206d617463680000000000000000000000000000000000000000000000606082015260800190565b6020808252601c908201527f426f72696e674d6174683a2075696e74313238204f766572666c6f7700000000604082015260600190565b60208082526018908201527f426f72696e674d6174683a20416464204f766572666c6f770000000000000000604082015260600190565b6020808252818101527f4f776e61626c653a2063616c6c6572206973206e6f7420746865206f776e6572604082015260600190565b6020808252818101527f4f776e61626c653a2063616c6c657220213d2070656e64696e67206f776e6572604082015260600190565b6020808252601b908201527f426f72696e674d6174683a2075696e743634204f766572666c6f770000000000604082015260600190565b6020808252601d908201527f4d61737465724368656656323a206e6f206d69677261746f7220736574000000604082015260600190565b60208082526024908201527f5369676e6564536166654d6174683a207375627472616374696f6e206f76657260408201527f666c6f7700000000000000000000000000000000000000000000000000000000606082015260800190565b6020808252818101527f426f72696e6745524332303a205472616e7366657246726f6d206661696c6564604082015260600190565b60208082526018908201527f426f72696e674d6174683a204d756c204f766572666c6f770000000000000000604082015260600190565b81516fffffffffffffffffffffffffffffffff16815260208083015167ffffffffffffffff90811691830191909152604092830151169181019190915260600190565b6fffffffffffffffffffffffffffffffff93909316835267ffffffffffffffff918216602084015216604082015260600190565b90815260200190565b94855273ffffffffffffffffffffffffffffffffffffffff93841660208601529190921660408401526060830191909152608082015260a00190565b9182521515602082015260400190565b918252602082015260400190565b67ffffffffffffffff93909316835260208301919091526fffffffffffffffffffffffffffffffff16604082015260600190565b60008083357fffffffffffffffffffffffffffffffffffffffffffffffffffffffffffffffe1843603018112613a5e578283fd5b83018035915067ffffffffffffffff821115613a78578283fd5b602001915036819003821315612f7457600080fd5b60405181810167ffffffffffffffff81118282101715613aac57600080fd5b604052919050565b60005b83811015613acf578181015183820152602001613ab7565b838111156117ec5750506000910152565b73ffffffffffffffffffffffffffffffffffffffff81168114613b0257600080fd5b50565b8015158114613b0257600080fdfea2646970667358221220727176529cdcd52ccea79e76ada7b635ba753eb8f56d691110986a5712d643f264736f6c634300060c0033",
  "devdoc": {
    "kind": "dev",
    "methods": {
      "add(uint256,address,address)": {
        "params": {
          "_lpToken": "Address of the LP ERC-20 token.",
          "_rewarder": "Address of the rewarder delegate.",
          "allocPoint": "AP of the new pool."
        }
      },
      "constructor": {
        "params": {
          "_MASTER_CHEF": "The SushiSwap MCV1 contract address.",
          "_MASTER_PID": "The pool ID of the dummy token on the base MCV1 contract.",
          "_sushi": "The SUSHI token contract address."
        }
      },
      "deposit(uint256,uint256,address)": {
        "params": {
          "amount": "LP token amount to deposit.",
          "pid": "The index of the pool. See `poolInfo`.",
          "to": "The receiver of `amount` deposit benefit."
        }
      },
      "emergencyWithdraw(uint256,address)": {
        "params": {
          "pid": "The index of the pool. See `poolInfo`.",
          "to": "Receiver of the LP tokens."
        }
      },
      "harvest(uint256,address)": {
        "params": {
          "pid": "The index of the pool. See `poolInfo`.",
          "to": "Receiver of SUSHI rewards."
        }
      },
      "init(address)": {
        "params": {
          "dummyToken": "The address of the ERC-20 token to deposit into MCV1."
        }
      },
      "massUpdatePools(uint256[])": {
        "params": {
          "pids": "Pool IDs of all to be updated. Make sure to update all active pools."
        }
      },
      "migrate(uint256)": {
        "params": {
          "_pid": "The index of the pool. See `poolInfo`."
        }
      },
      "pendingSushi(uint256,address)": {
        "params": {
          "_pid": "The index of the pool. See `poolInfo`.",
          "_user": "Address of user."
        },
        "returns": {
          "pending": "SUSHI reward for a given user."
        }
      },
      "set(uint256,uint256,address,bool)": {
        "params": {
          "_allocPoint": "New AP of the pool.",
          "_pid": "The index of the pool. See `poolInfo`.",
          "_rewarder": "Address of the rewarder delegate.",
          "overwrite": "True if _rewarder should be `set`. Otherwise `_rewarder` is ignored."
        }
      },
      "setMigrator(address)": {
        "params": {
          "_migrator": "The contract address to set."
        }
      },
      "updatePool(uint256)": {
        "params": {
          "pid": "The index of the pool. See `poolInfo`."
        },
        "returns": {
          "pool": "Returns the pool that was updated."
        }
      },
      "withdraw(uint256,uint256,address)": {
        "params": {
          "amount": "LP token amount to withdraw.",
          "pid": "The index of the pool. See `poolInfo`.",
          "to": "Receiver of the LP tokens."
        }
      },
      "withdrawAndHarvest(uint256,uint256,address)": {
        "params": {
          "amount": "LP token amount to withdraw.",
          "pid": "The index of the pool. See `poolInfo`.",
          "to": "Receiver of the LP tokens and SUSHI rewards."
        }
      }
    },
    "stateVariables": {
      "totalAllocPoint": {
        "details": "Total allocation points. Must be the sum of all allocation points in all pools."
      }
    },
    "version": 1
  },
  "userdoc": {
    "kind": "user",
    "methods": {
      "MASTER_CHEF()": {
        "notice": "Address of MCV1 contract."
      },
      "MASTER_PID()": {
        "notice": "The index of MCV2 master pool in MCV1."
      },
      "SUSHI()": {
        "notice": "Address of SUSHI contract."
      },
      "add(uint256,address,address)": {
        "notice": "Add a new LP to the pool. Can only be called by the owner. DO NOT add the same LP token more than once. Rewards will be messed up if you do."
      },
      "deposit(uint256,uint256,address)": {
        "notice": "Deposit LP tokens to MCV2 for SUSHI allocation."
      },
      "emergencyWithdraw(uint256,address)": {
        "notice": "Withdraw without caring about rewards. EMERGENCY ONLY."
      },
      "harvest(uint256,address)": {
        "notice": "Harvest proceeds for transaction sender to `to`."
      },
      "harvestFromMasterChef()": {
        "notice": "Harvests SUSHI from `MASTER_CHEF` MCV1 and pool `MASTER_PID` to this MCV2 contract."
      },
      "init(address)": {
        "notice": "Deposits a dummy token to `MASTER_CHEF` MCV1. This is required because MCV1 holds the minting rights for SUSHI. Any balance of transaction sender in `dummyToken` is transferred. The allocation point for the pool on MCV1 is the total allocation point for all pools that receive double incentives."
      },
      "lpToken(uint256)": {
        "notice": "Address of the LP token for each MCV2 pool."
      },
      "massUpdatePools(uint256[])": {
        "notice": "Update reward variables for all pools. Be careful of gas spending!"
      },
      "migrate(uint256)": {
        "notice": "Migrate LP token to another LP contract through the `migrator` contract."
      },
      "pendingSushi(uint256,address)": {
        "notice": "View function to see pending SUSHI on frontend."
      },
      "poolInfo(uint256)": {
        "notice": "Info of each MCV2 pool."
      },
      "poolLength()": {
        "notice": "Returns the number of MCV2 pools."
      },
      "rewarder(uint256)": {
        "notice": "Address of each `IRewarder` contract in MCV2."
      },
      "set(uint256,uint256,address,bool)": {
        "notice": "Update the given pool's SUSHI allocation point and `IRewarder` contract. Can only be called by the owner."
      },
      "setMigrator(address)": {
        "notice": "Set the `migrator` contract. Can only be called by the owner."
      },
      "sushiPerBlock()": {
        "notice": "Calculates and returns the `amount` of SUSHI per block."
      },
      "updatePool(uint256)": {
        "notice": "Update reward variables of the given pool."
      },
      "userInfo(uint256,address)": {
        "notice": "Info of each user that stakes LP tokens."
      },
      "withdraw(uint256,uint256,address)": {
        "notice": "Withdraw LP tokens from MCV2."
      },
      "withdrawAndHarvest(uint256,uint256,address)": {
        "notice": "Withdraw LP tokens from MCV2 and harvest proceeds for transaction sender to `to`."
      }
    },
    "notice": "The (older) MasterChef contract gives out a constant number of SUSHI tokens per block. It is the only address with minting rights for SUSHI. The idea for this MasterChef V2 (MCV2) contract is therefore to be the owner of a dummy token that is deposited into the MasterChef V1 (MCV1) contract. The allocation point for this pool on MCV1 is the total allocation point for all pools that receive double incentives.",
    "version": 1
  },
  "storageLayout": {
    "storage": [
      {
        "astId": 149,
        "contract": "contracts/MasterChefV2.sol:MasterChefV2",
        "label": "owner",
        "offset": 0,
        "slot": "0",
        "type": "t_address"
      },
      {
        "astId": 151,
        "contract": "contracts/MasterChefV2.sol:MasterChefV2",
        "label": "pendingOwner",
        "offset": 0,
        "slot": "1",
        "type": "t_address"
      },
      {
        "astId": 898,
        "contract": "contracts/MasterChefV2.sol:MasterChefV2",
        "label": "migrator",
        "offset": 0,
        "slot": "2",
        "type": "t_contract(IMigratorChef)858"
      },
      {
        "astId": 902,
        "contract": "contracts/MasterChefV2.sol:MasterChefV2",
        "label": "poolInfo",
        "offset": 0,
        "slot": "3",
        "type": "t_array(t_struct(PoolInfo)887_storage)dyn_storage"
      },
      {
        "astId": 906,
        "contract": "contracts/MasterChefV2.sol:MasterChefV2",
        "label": "lpToken",
        "offset": 0,
        "slot": "4",
        "type": "t_array(t_contract(IERC20)337)dyn_storage"
      },
      {
        "astId": 910,
        "contract": "contracts/MasterChefV2.sol:MasterChefV2",
        "label": "rewarder",
        "offset": 0,
        "slot": "5",
        "type": "t_array(t_contract(IRewarder)3376)dyn_storage"
      },
      {
        "astId": 917,
        "contract": "contracts/MasterChefV2.sol:MasterChefV2",
        "label": "userInfo",
        "offset": 0,
        "slot": "6",
        "type": "t_mapping(t_uint256,t_mapping(t_address,t_struct(UserInfo)880_storage))"
      },
      {
        "astId": 920,
        "contract": "contracts/MasterChefV2.sol:MasterChefV2",
        "label": "totalAllocPoint",
        "offset": 0,
        "slot": "7",
        "type": "t_uint256"
      }
    ],
    "types": {
      "t_address": {
        "encoding": "inplace",
        "label": "address",
        "numberOfBytes": "20"
      },
      "t_array(t_contract(IERC20)337)dyn_storage": {
        "base": "t_contract(IERC20)337",
        "encoding": "dynamic_array",
        "label": "contract IERC20[]",
        "numberOfBytes": "32"
      },
      "t_array(t_contract(IRewarder)3376)dyn_storage": {
        "base": "t_contract(IRewarder)3376",
        "encoding": "dynamic_array",
        "label": "contract IRewarder[]",
        "numberOfBytes": "32"
      },
      "t_array(t_struct(PoolInfo)887_storage)dyn_storage": {
        "base": "t_struct(PoolInfo)887_storage",
        "encoding": "dynamic_array",
        "label": "struct MasterChefV2.PoolInfo[]",
        "numberOfBytes": "32"
      },
      "t_contract(IERC20)337": {
        "encoding": "inplace",
        "label": "contract IERC20",
        "numberOfBytes": "20"
      },
      "t_contract(IMigratorChef)858": {
        "encoding": "inplace",
        "label": "contract IMigratorChef",
        "numberOfBytes": "20"
      },
      "t_contract(IRewarder)3376": {
        "encoding": "inplace",
        "label": "contract IRewarder",
        "numberOfBytes": "20"
      },
      "t_int256": {
        "encoding": "inplace",
        "label": "int256",
        "numberOfBytes": "32"
      },
      "t_mapping(t_address,t_struct(UserInfo)880_storage)": {
        "encoding": "mapping",
        "key": "t_address",
        "label": "mapping(address => struct MasterChefV2.UserInfo)",
        "numberOfBytes": "32",
        "value": "t_struct(UserInfo)880_storage"
      },
      "t_mapping(t_uint256,t_mapping(t_address,t_struct(UserInfo)880_storage))": {
        "encoding": "mapping",
        "key": "t_uint256",
        "label": "mapping(uint256 => mapping(address => struct MasterChefV2.UserInfo))",
        "numberOfBytes": "32",
        "value": "t_mapping(t_address,t_struct(UserInfo)880_storage)"
      },
      "t_struct(PoolInfo)887_storage": {
        "encoding": "inplace",
        "label": "struct MasterChefV2.PoolInfo",
        "members": [
          {
            "astId": 882,
            "contract": "contracts/MasterChefV2.sol:MasterChefV2",
            "label": "accSushiPerShare",
            "offset": 0,
            "slot": "0",
            "type": "t_uint128"
          },
          {
            "astId": 884,
            "contract": "contracts/MasterChefV2.sol:MasterChefV2",
            "label": "lastRewardBlock",
            "offset": 16,
            "slot": "0",
            "type": "t_uint64"
          },
          {
            "astId": 886,
            "contract": "contracts/MasterChefV2.sol:MasterChefV2",
            "label": "allocPoint",
            "offset": 24,
            "slot": "0",
            "type": "t_uint64"
          }
        ],
        "numberOfBytes": "32"
      },
      "t_struct(UserInfo)880_storage": {
        "encoding": "inplace",
        "label": "struct MasterChefV2.UserInfo",
        "members": [
          {
            "astId": 877,
            "contract": "contracts/MasterChefV2.sol:MasterChefV2",
            "label": "amount",
            "offset": 0,
            "slot": "0",
            "type": "t_uint256"
          },
          {
            "astId": 879,
            "contract": "contracts/MasterChefV2.sol:MasterChefV2",
            "label": "rewardDebt",
            "offset": 0,
            "slot": "1",
            "type": "t_int256"
          }
        ],
        "numberOfBytes": "64"
      },
      "t_uint128": {
        "encoding": "inplace",
        "label": "uint128",
        "numberOfBytes": "16"
      },
      "t_uint256": {
        "encoding": "inplace",
        "label": "uint256",
        "numberOfBytes": "32"
      },
      "t_uint64": {
        "encoding": "inplace",
        "label": "uint64",
        "numberOfBytes": "8"
      }
    }
  }
}