{
  "address": "0x91Ba423BFD59Ff2B8AF0cb5f318698fda43942A5",
  "abi": [
    {
      "inputs": [
        {
          "internalType": "contract IERC20",
          "name": "_sushi",
          "type": "address"
        }
      ],
      "stateMutability": "nonpayable",
      "type": "constructor"
    },
    {
      "anonymous": false,
      "inputs": [
        {
          "indexed": true,
          "internalType": "address",
          "name": "user",
          "type": "address"
        },
        {
          "indexed": true,
          "internalType": "uint256",
          "name": "pid",
          "type": "uint256"
        },
        {
          "indexed": false,
          "internalType": "uint256",
          "name": "amount",
          "type": "uint256"
        },
        {
          "indexed": true,
          "internalType": "address",
          "name": "to",
          "type": "address"
        }
      ],
      "name": "Deposit",
      "type": "event"
    },
    {
      "anonymous": false,
      "inputs": [
        {
          "indexed": true,
          "internalType": "address",
          "name": "user",
          "type": "address"
        },
        {
          "indexed": true,
          "internalType": "uint256",
          "name": "pid",
          "type": "uint256"
        },
        {
          "indexed": false,
          "internalType": "uint256",
          "name": "amount",
          "type": "uint256"
        },
        {
          "indexed": true,
          "internalType": "address",
          "name": "to",
          "type": "address"
        }
      ],
      "name": "EmergencyWithdraw",
      "type": "event"
    },
    {
      "anonymous": false,
      "inputs": [
        {
          "indexed": true,
          "internalType": "address",
          "name": "user",
          "type": "address"
        },
        {
          "indexed": true,
          "internalType": "uint256",
          "name": "pid",
          "type": "uint256"
        },
        {
          "indexed": false,
          "internalType": "uint256",
          "name": "amount",
          "type": "uint256"
        }
      ],
      "name": "Harvest",
      "type": "event"
    },
    {
      "anonymous": false,
      "inputs": [
        {
          "indexed": true,
          "internalType": "uint256",
          "name": "pid",
          "type": "uint256"
        },
        {
          "indexed": false,
          "internalType": "uint256",
          "name": "allocPoint",
          "type": "uint256"
        },
        {
          "indexed": true,
          "internalType": "contract IERC20",
          "name": "lpToken",
          "type": "address"
        },
        {
          "indexed": true,
          "internalType": "contract IRewarder",
          "name": "rewarder",
          "type": "address"
        }
      ],
      "name": "LogPoolAddition",
      "type": "event"
    },
    {
      "anonymous": false,
      "inputs": [
        {
          "indexed": true,
          "internalType": "uint256",
          "name": "pid",
          "type": "uint256"
        },
        {
          "indexed": false,
          "internalType": "uint256",
          "name": "allocPoint",
          "type": "uint256"
        },
        {
          "indexed": true,
          "internalType": "contract IRewarder",
          "name": "rewarder",
          "type": "address"
        },
        {
          "indexed": false,
          "internalType": "bool",
          "name": "overwrite",
          "type": "bool"
        }
      ],
      "name": "LogSetPool",
      "type": "event"
    },
    {
      "anonymous": false,
      "inputs": [
        {
          "indexed": false,
          "internalType": "uint256",
          "name": "sushiPerSecond",
          "type": "uint256"
        }
      ],
      "name": "LogSushiPerSecond",
      "type": "event"
    },
    {
      "anonymous": false,
      "inputs": [
        {
          "indexed": true,
          "internalType": "uint256",
          "name": "pid",
          "type": "uint256"
        },
        {
          "indexed": false,
          "internalType": "uint64",
          "name": "lastRewardTime",
          "type": "uint64"
        },
        {
          "indexed": false,
          "internalType": "uint256",
          "name": "lpSupply",
          "type": "uint256"
        },
        {
          "indexed": false,
          "internalType": "uint256",
          "name": "accSushiPerShare",
          "type": "uint256"
        }
      ],
      "name": "LogUpdatePool",
      "type": "event"
    },
    {
      "anonymous": false,
      "inputs": [
        {
          "indexed": true,
          "internalType": "address",
          "name": "previousOwner",
          "type": "address"
        },
        {
          "indexed": true,
          "internalType": "address",
          "name": "newOwner",
          "type": "address"
        }
      ],
      "name": "OwnershipTransferred",
      "type": "event"
    },
    {
      "anonymous": false,
      "inputs": [
        {
          "indexed": true,
          "internalType": "address",
          "name": "user",
          "type": "address"
        },
        {
          "indexed": true,
          "internalType": "uint256",
          "name": "pid",
          "type": "uint256"
        },
        {
          "indexed": false,
          "internalType": "uint256",
          "name": "amount",
          "type": "uint256"
        },
        {
          "indexed": true,
          "internalType": "address",
          "name": "to",
          "type": "address"
        }
      ],
      "name": "Withdraw",
      "type": "event"
    },
    {
      "inputs": [],
      "name": "SUSHI",
      "outputs": [
        {
          "internalType": "contract IERC20",
          "name": "",
          "type": "address"
        }
      ],
      "stateMutability": "view",
      "type": "function"
    },
    {
      "inputs": [
        {
          "internalType": "uint256",
          "name": "allocPoint",
          "type": "uint256"
        },
        {
          "internalType": "contract IERC20",
          "name": "_lpToken",
          "type": "address"
        },
        {
          "internalType": "contract IRewarder",
          "name": "_rewarder",
          "type": "address"
        }
      ],
      "name": "add",
      "outputs": [],
      "stateMutability": "nonpayable",
      "type": "function"
    },
    {
      "inputs": [
        {
          "internalType": "address",
          "name": "",
          "type": "address"
        }
      ],
      "name": "addedTokens",
      "outputs": [
        {
          "internalType": "bool",
          "name": "",
          "type": "bool"
        }
      ],
      "stateMutability": "view",
      "type": "function"
    },
    {
      "inputs": [
        {
          "internalType": "bytes[]",
          "name": "calls",
          "type": "bytes[]"
        },
        {
          "internalType": "bool",
          "name": "revertOnFail",
          "type": "bool"
        }
      ],
      "name": "batch",
      "outputs": [
        {
          "internalType": "bool[]",
          "name": "successes",
          "type": "bool[]"
        },
        {
          "internalType": "bytes[]",
          "name": "results",
          "type": "bytes[]"
        }
      ],
      "stateMutability": "payable",
      "type": "function"
    },
    {
      "inputs": [],
      "name": "claimOwnership",
      "outputs": [],
      "stateMutability": "nonpayable",
      "type": "function"
    },
    {
      "inputs": [
        {
          "internalType": "uint256",
          "name": "pid",
          "type": "uint256"
        },
        {
          "internalType": "uint256",
          "name": "amount",
          "type": "uint256"
        },
        {
          "internalType": "address",
          "name": "to",
          "type": "address"
        }
      ],
      "name": "deposit",
      "outputs": [],
      "stateMutability": "nonpayable",
      "type": "function"
    },
    {
      "inputs": [
        {
          "internalType": "uint256",
          "name": "pid",
          "type": "uint256"
        },
        {
          "internalType": "address",
          "name": "to",
          "type": "address"
        }
      ],
      "name": "emergencyWithdraw",
      "outputs": [],
      "stateMutability": "nonpayable",
      "type": "function"
    },
    {
      "inputs": [
        {
          "internalType": "uint256",
          "name": "pid",
          "type": "uint256"
        },
        {
          "internalType": "address",
          "name": "to",
          "type": "address"
        }
      ],
      "name": "harvest",
      "outputs": [],
      "stateMutability": "nonpayable",
      "type": "function"
    },
    {
      "inputs": [
        {
          "internalType": "uint256",
          "name": "",
          "type": "uint256"
        }
      ],
      "name": "lpToken",
      "outputs": [
        {
          "internalType": "contract IERC20",
          "name": "",
          "type": "address"
        }
      ],
      "stateMutability": "view",
      "type": "function"
    },
    {
      "inputs": [
        {
          "internalType": "uint256[]",
          "name": "pids",
          "type": "uint256[]"
        }
      ],
      "name": "massUpdatePools",
      "outputs": [],
      "stateMutability": "nonpayable",
      "type": "function"
    },
    {
      "inputs": [
        {
          "internalType": "uint256",
          "name": "_pid",
          "type": "uint256"
        }
      ],
      "name": "migrate",
      "outputs": [],
      "stateMutability": "nonpayable",
      "type": "function"
    },
    {
      "inputs": [],
      "name": "migrator",
      "outputs": [
        {
          "internalType": "contract IMigratorChef",
          "name": "",
          "type": "address"
        }
      ],
      "stateMutability": "view",
      "type": "function"
    },
    {
      "inputs": [],
      "name": "owner",
      "outputs": [
        {
          "internalType": "address",
          "name": "",
          "type": "address"
        }
      ],
      "stateMutability": "view",
      "type": "function"
    },
    {
      "inputs": [],
      "name": "pendingOwner",
      "outputs": [
        {
          "internalType": "address",
          "name": "",
          "type": "address"
        }
      ],
      "stateMutability": "view",
      "type": "function"
    },
    {
      "inputs": [
        {
          "internalType": "uint256",
          "name": "_pid",
          "type": "uint256"
        },
        {
          "internalType": "address",
          "name": "_user",
          "type": "address"
        }
      ],
      "name": "pendingSushi",
      "outputs": [
        {
          "internalType": "uint256",
          "name": "pending",
          "type": "uint256"
        }
      ],
      "stateMutability": "view",
      "type": "function"
    },
    {
      "inputs": [
        {
          "internalType": "contract IERC20",
          "name": "token",
          "type": "address"
        },
        {
          "internalType": "address",
          "name": "from",
          "type": "address"
        },
        {
          "internalType": "address",
          "name": "to",
          "type": "address"
        },
        {
          "internalType": "uint256",
          "name": "amount",
          "type": "uint256"
        },
        {
          "internalType": "uint256",
          "name": "deadline",
          "type": "uint256"
        },
        {
          "internalType": "uint8",
          "name": "v",
          "type": "uint8"
        },
        {
          "internalType": "bytes32",
          "name": "r",
          "type": "bytes32"
        },
        {
          "internalType": "bytes32",
          "name": "s",
          "type": "bytes32"
        }
      ],
      "name": "permitToken",
      "outputs": [],
      "stateMutability": "nonpayable",
      "type": "function"
    },
    {
      "inputs": [
        {
          "internalType": "uint256",
          "name": "",
          "type": "uint256"
        }
      ],
      "name": "poolInfo",
      "outputs": [
        {
          "internalType": "uint128",
          "name": "accSushiPerShare",
          "type": "uint128"
        },
        {
          "internalType": "uint64",
          "name": "lastRewardTime",
          "type": "uint64"
        },
        {
          "internalType": "uint64",
          "name": "allocPoint",
          "type": "uint64"
        }
      ],
      "stateMutability": "view",
      "type": "function"
    },
    {
      "inputs": [],
      "name": "poolLength",
      "outputs": [
        {
          "internalType": "uint256",
          "name": "pools",
          "type": "uint256"
        }
      ],
      "stateMutability": "view",
      "type": "function"
    },
    {
      "inputs": [
        {
          "internalType": "uint256",
          "name": "",
          "type": "uint256"
        }
      ],
      "name": "rewarder",
      "outputs": [
        {
          "internalType": "contract IRewarder",
          "name": "",
          "type": "address"
        }
      ],
      "stateMutability": "view",
      "type": "function"
    },
    {
      "inputs": [
        {
          "internalType": "uint256",
          "name": "_pid",
          "type": "uint256"
        },
        {
          "internalType": "uint256",
          "name": "_allocPoint",
          "type": "uint256"
        },
        {
          "internalType": "contract IRewarder",
          "name": "_rewarder",
          "type": "address"
        },
        {
          "internalType": "bool",
          "name": "overwrite",
          "type": "bool"
        }
      ],
      "name": "set",
      "outputs": [],
      "stateMutability": "nonpayable",
      "type": "function"
    },
    {
      "inputs": [
        {
          "internalType": "contract IMigratorChef",
          "name": "_migrator",
          "type": "address"
        }
      ],
      "name": "setMigrator",
      "outputs": [],
      "stateMutability": "nonpayable",
      "type": "function"
    },
    {
      "inputs": [
        {
          "internalType": "uint256",
          "name": "_sushiPerSecond",
          "type": "uint256"
        }
      ],
      "name": "setSushiPerSecond",
      "outputs": [],
      "stateMutability": "nonpayable",
      "type": "function"
    },
    {
      "inputs": [],
      "name": "sushiPerSecond",
      "outputs": [
        {
          "internalType": "uint256",
          "name": "",
          "type": "uint256"
        }
      ],
      "stateMutability": "view",
      "type": "function"
    },
    {
      "inputs": [],
      "name": "totalAllocPoint",
      "outputs": [
        {
          "internalType": "uint256",
          "name": "",
          "type": "uint256"
        }
      ],
      "stateMutability": "view",
      "type": "function"
    },
    {
      "inputs": [
        {
          "internalType": "address",
          "name": "newOwner",
          "type": "address"
        },
        {
          "internalType": "bool",
          "name": "direct",
          "type": "bool"
        },
        {
          "internalType": "bool",
          "name": "renounce",
          "type": "bool"
        }
      ],
      "name": "transferOwnership",
      "outputs": [],
      "stateMutability": "nonpayable",
      "type": "function"
    },
    {
      "inputs": [
        {
          "internalType": "uint256",
          "name": "pid",
          "type": "uint256"
        }
      ],
      "name": "updatePool",
      "outputs": [
        {
          "components": [
            {
              "internalType": "uint128",
              "name": "accSushiPerShare",
              "type": "uint128"
            },
            {
              "internalType": "uint64",
              "name": "lastRewardTime",
              "type": "uint64"
            },
            {
              "internalType": "uint64",
              "name": "allocPoint",
              "type": "uint64"
            }
          ],
          "internalType": "struct MiniChefV2.PoolInfo",
          "name": "pool",
          "type": "tuple"
        }
      ],
      "stateMutability": "nonpayable",
      "type": "function"
    },
    {
      "inputs": [
        {
          "internalType": "uint256",
          "name": "",
          "type": "uint256"
        },
        {
          "internalType": "address",
          "name": "",
          "type": "address"
        }
      ],
      "name": "userInfo",
      "outputs": [
        {
          "internalType": "uint256",
          "name": "amount",
          "type": "uint256"
        },
        {
          "internalType": "int256",
          "name": "rewardDebt",
          "type": "int256"
        }
      ],
      "stateMutability": "view",
      "type": "function"
    },
    {
      "inputs": [
        {
          "internalType": "uint256",
          "name": "pid",
          "type": "uint256"
        },
        {
          "internalType": "uint256",
          "name": "amount",
          "type": "uint256"
        },
        {
          "internalType": "address",
          "name": "to",
          "type": "address"
        }
      ],
      "name": "withdraw",
      "outputs": [],
      "stateMutability": "nonpayable",
      "type": "function"
    },
    {
      "inputs": [
        {
          "internalType": "uint256",
          "name": "pid",
          "type": "uint256"
        },
        {
          "internalType": "uint256",
          "name": "amount",
          "type": "uint256"
        },
        {
          "internalType": "address",
          "name": "to",
          "type": "address"
        }
      ],
      "name": "withdrawAndHarvest",
      "outputs": [],
      "stateMutability": "nonpayable",
      "type": "function"
    }
  ],
  "transactionHash": "0x2f1bc3751dc8739acc46bde6a2970d48273966bfda9c26620456d34e040ffc8e",
  "args": [
    "0x7B402a341f92d2Ce96da3F87D00B60D552D66cA7"
  ],
  "numDeployments": 1,
  "solcInputHash": "f9e2008d3443ff608c8d4fb064ce7a9a",
  "bytecode": "0x60a06040523480156200001157600080fd5b506040516200382038038062003820833981016040819052620000349162000089565b600080546001600160a01b0319163390811782556040519091907f8be0079c531659141344cd1fd0a4f28419497f9722a3daafe3b4186f6b6457e0908290a360601b6001600160601b031916608052620000b9565b6000602082840312156200009b578081fd5b81516001600160a01b0381168114620000b2578182fd5b9392505050565b60805160601c61373f620000e160003980610a175280611e4b5280612295525061373f6000f3fe6080604052600436106101c25760003560e01c806379d12ffb116100f75780639baf58c311610095578063c346253d11610064578063c346253d146104f6578063d1abb90714610516578063d2423b5114610536578063e30c397814610557576101c2565b80639baf58c31461048c578063a06e408b146104ac578063ab560e10146104c1578063ab7de098146104d6576101c2565b806388bba42f116100d157806388bba42f146104095780638da5cb5b146104295780638dbdbe6d1461043e57806393f1a40b1461045e576101c2565b806379d12ffb146103a75780637c516e94146103d45780637cd07e47146103f4576101c2565b806323cf3118116101645780634e71e0c81161013e5780634e71e0c81461031857806351eb05a61461032d57806357a5b58c1461035a57806378ed5d1f1461037a576101c2565b806323cf3118146102b85780632f940c70146102d8578063454b0608146102f8576101c2565b80631526fe27116101a05780631526fe271461023457806317caf6f11461026357806318fccc7614610278578063195426ec14610298576101c2565b8063078dfbe7146101c7578063081e3eda146101e95780630ad58d2f14610214575b600080fd5b3480156101d357600080fd5b506101e76101e2366004612c12565b61056c565b005b3480156101f557600080fd5b506101fe610700565b60405161020b91906135b0565b60405180910390f35b34801561022057600080fd5b506101e761022f366004612ef3565b610706565b34801561024057600080fd5b5061025461024f366004612e5e565b6108f9565b60405161020b9392919061357c565b34801561026f57600080fd5b506101fe610967565b34801561028457600080fd5b506101e7610293366004612e8e565b61096d565b3480156102a457600080fd5b506101fe6102b3366004612e8e565b610b5d565b3480156102c457600080fd5b506101e76102d3366004612bf6565b610dbf565b3480156102e457600080fd5b506101e76102f3366004612e8e565b610e57565b34801561030457600080fd5b506101e7610313366004612e5e565b610fc5565b34801561032457600080fd5b506101e7611428565b34801561033957600080fd5b5061034d610348366004612e5e565b61150e565b60405161020b9190613539565b34801561036657600080fd5b506101e7610375366004612ca6565b611862565b34801561038657600080fd5b5061039a610395366004612e5e565b611898565b60405161020b9190612fdf565b3480156103b357600080fd5b506103c76103c2366004612bf6565b6118cc565b60405161020b919061313f565b3480156103e057600080fd5b506101e76103ef366004612d1e565b6118e1565b34801561040057600080fd5b5061039a61197b565b34801561041557600080fd5b506101e7610424366004612f20565b611997565b34801561043557600080fd5b5061039a611b77565b34801561044a57600080fd5b506101e7610459366004612ef3565b611b93565b34801561046a57600080fd5b5061047e610479366004612e8e565b611d8e565b60405161020b929190613605565b34801561049857600080fd5b506101e76104a7366004612e5e565b611db2565b3480156104b857600080fd5b506101fe611e43565b3480156104cd57600080fd5b5061039a611e49565b3480156104e257600080fd5b506101e76104f1366004612ebd565b611e6d565b34801561050257600080fd5b5061039a610511366004612e5e565b61219b565b34801561052257600080fd5b506101e7610531366004612ef3565b6121a8565b610549610544366004612c5c565b612454565b60405161020b9291906130a5565b34801561056357600080fd5b5061039a612600565b60005473ffffffffffffffffffffffffffffffffffffffff1633146105c6576040517f08c379a00000000000000000000000000000000000000000000000000000000081526004016105bd90613361565b60405180910390fd5b81156106ba5773ffffffffffffffffffffffffffffffffffffffff83161515806105ed5750805b610623576040517f08c379a00000000000000000000000000000000000000000000000000000000081526004016105bd9061325f565b6000805460405173ffffffffffffffffffffffffffffffffffffffff808716939216917f8be0079c531659141344cd1fd0a4f28419497f9722a3daafe3b4186f6b6457e091a36000805473ffffffffffffffffffffffffffffffffffffffff85167fffffffffffffffffffffffff0000000000000000000000000000000000000000918216179091556001805490911690556106fb565b600180547fffffffffffffffffffffffff00000000000000000000000000000000000000001673ffffffffffffffffffffffffffffffffffffffff85161790555b505050565b60035490565b61070e612b8d565b6107178461150e565b600085815260066020908152604080832033845290915290208151919250906107729064e8d4a510009061075e9087906fffffffffffffffffffffffffffffffff1661261c565b8161076557fe5b6001840154919004612673565b6001820155805461078390856126da565b815560058054600091908790811061079757fe5b60009182526020909120015473ffffffffffffffffffffffffffffffffffffffff16905080156108505781546040517f8bf6374200000000000000000000000000000000000000000000000000000000815273ffffffffffffffffffffffffffffffffffffffff831691638bf637429161081d918a9133918a91600091906004016135b9565b600060405180830381600087803b15801561083757600080fd5b505af115801561084b573d6000803e3d6000fd5b505050505b61088b84866004898154811061086257fe5b60009182526020909120015473ffffffffffffffffffffffffffffffffffffffff169190612717565b8373ffffffffffffffffffffffffffffffffffffffff16863373ffffffffffffffffffffffffffffffffffffffff167f8166bf25f8a2b7ed3c85049207da4358d16edbed977d23fa2ee6f0dde3ec2132886040516108e991906135b0565b60405180910390a4505050505050565b6003818154811061090657fe5b6000918252602090912001546fffffffffffffffffffffffffffffffff8116915067ffffffffffffffff7001000000000000000000000000000000008204811691780100000000000000000000000000000000000000000000000090041683565b60085481565b610975612b8d565b61097e8361150e565b6000848152600660209081526040808320338452909152812082518154939450909264e8d4a51000916109c391906fffffffffffffffffffffffffffffffff1661261c565b816109ca57fe5b04905060006109ee6109e984600101548461267390919063ffffffff16565b612841565b6001840183905590508015610a3e57610a3e73ffffffffffffffffffffffffffffffffffffffff7f0000000000000000000000000000000000000000000000000000000000000000168683612717565b600060058781548110610a4d57fe5b60009182526020909120015473ffffffffffffffffffffffffffffffffffffffff1690508015610b055783546040517f8bf6374200000000000000000000000000000000000000000000000000000000815273ffffffffffffffffffffffffffffffffffffffff831691638bf6374291610ad2918b9133918c918991906004016135b9565b600060405180830381600087803b158015610aec57600080fd5b505af1158015610b00573d6000803e3d6000fd5b505050505b863373ffffffffffffffffffffffffffffffffffffffff167f71bab65ced2e5750775a0613be067df48ef06cf92a496ebf7663ae066092495484604051610b4c91906135b0565b60405180910390a350505050505050565b6000610b67612b8d565b60038481548110610b7457fe5b600091825260208083206040805160608101825291909301546fffffffffffffffffffffffffffffffff808216835267ffffffffffffffff70010000000000000000000000000000000083048116848601527801000000000000000000000000000000000000000000000000909204909116828501528885526006835283852073ffffffffffffffffffffffffffffffffffffffff89168652909252918320825160048054949650919492169288908110610c2b57fe5b6000918252602090912001546040517f70a0823100000000000000000000000000000000000000000000000000000000815273ffffffffffffffffffffffffffffffffffffffff909116906370a0823190610c8a903090600401612fdf565b60206040518083038186803b158015610ca257600080fd5b505afa158015610cb6573d6000803e3d6000fd5b505050506040513d601f19601f82011682018060405250810190610cda9190612e76565b9050836020015167ffffffffffffffff1642118015610cf857508015155b15610d86576000610d20856020015167ffffffffffffffff16426126da90919063ffffffff16565b90506000600854610d54876040015167ffffffffffffffff16610d4e6009548661261c90919063ffffffff16565b9061261c565b81610d5b57fe5b049050610d8183610d718364e8d4a5100061261c565b81610d7857fe5b86919004612881565b935050505b60018301548354610db4916109e99164e8d4a5100090610da6908761261c565b81610dad57fe5b0490612673565b979650505050505050565b60005473ffffffffffffffffffffffffffffffffffffffff163314610e10576040517f08c379a00000000000000000000000000000000000000000000000000000000081526004016105bd90613361565b600280547fffffffffffffffffffffffff00000000000000000000000000000000000000001673ffffffffffffffffffffffffffffffffffffffff92909216919091179055565b60008281526006602090815260408083203384529091528120805482825560018201839055600580549293919286908110610e8e57fe5b60009182526020909120015473ffffffffffffffffffffffffffffffffffffffff1690508015610f46576040517f8bf6374200000000000000000000000000000000000000000000000000000000815273ffffffffffffffffffffffffffffffffffffffff821690638bf6374290610f139088903390899060009081906004016135b9565b600060405180830381600087803b158015610f2d57600080fd5b505af1158015610f41573d6000803e3d6000fd5b505050505b610f5884836004888154811061086257fe5b8373ffffffffffffffffffffffffffffffffffffffff16853373ffffffffffffffffffffffffffffffffffffffff167f2cac5e20e1541d836381527a43f651851e302817b71dc8e810284e69210c1c6b85604051610fb691906135b0565b60405180910390a45050505050565b60025473ffffffffffffffffffffffffffffffffffffffff16611014576040517f08c379a00000000000000000000000000000000000000000000000000000000081526004016105bd90613439565b60006004828154811061102357fe5b60009182526020822001546040517f70a0823100000000000000000000000000000000000000000000000000000000815273ffffffffffffffffffffffffffffffffffffffff909116925082906370a0823190611084903090600401612fdf565b60206040518083038186803b15801561109c57600080fd5b505afa1580156110b0573d6000803e3d6000fd5b505050506040513d601f19601f820116820180604052508101906110d49190612e76565b6002546040517f095ea7b300000000000000000000000000000000000000000000000000000000815291925073ffffffffffffffffffffffffffffffffffffffff8085169263095ea7b39261112f921690859060040161307f565b602060405180830381600087803b15801561114957600080fd5b505af115801561115d573d6000803e3d6000fd5b505050506040513d601f19601f820116820180604052508101906111819190612ce6565b506002546040517fce5494bb00000000000000000000000000000000000000000000000000000000815260009173ffffffffffffffffffffffffffffffffffffffff169063ce5494bb906111d9908690600401612fdf565b602060405180830381600087803b1580156111f357600080fd5b505af1158015611207573d6000803e3d6000fd5b505050506040513d601f19601f8201168201806040525081019061122b9190612d02565b6040517f70a0823100000000000000000000000000000000000000000000000000000000815290915073ffffffffffffffffffffffffffffffffffffffff8216906370a0823190611280903090600401612fdf565b60206040518083038186803b15801561129857600080fd5b505afa1580156112ac573d6000803e3d6000fd5b505050506040513d601f19601f820116820180604052508101906112d09190612e76565b8214611308576040517f08c379a00000000000000000000000000000000000000000000000000000000081526004016105bd90613296565b73ffffffffffffffffffffffffffffffffffffffff811660009081526007602052604090205460ff1615611368576040517f08c379a00000000000000000000000000000000000000000000000000000000081526004016105bd906133cb565b73ffffffffffffffffffffffffffffffffffffffff80821660009081526007602052604080822080547fffffffffffffffffffffffffffffffffffffffffffffffffffffffffffffff00908116600117909155928616825290208054909116905560048054829190869081106113da57fe5b9060005260206000200160006101000a81548173ffffffffffffffffffffffffffffffffffffffff021916908373ffffffffffffffffffffffffffffffffffffffff16021790555050505050565b60015473ffffffffffffffffffffffffffffffffffffffff1633811461147a576040517f08c379a00000000000000000000000000000000000000000000000000000000081526004016105bd90613396565b6000805460405173ffffffffffffffffffffffffffffffffffffffff808516939216917f8be0079c531659141344cd1fd0a4f28419497f9722a3daafe3b4186f6b6457e091a36000805473ffffffffffffffffffffffffffffffffffffffff9092167fffffffffffffffffffffffff0000000000000000000000000000000000000000928316179055600180549091169055565b611516612b8d565b6003828154811061152357fe5b60009182526020918290206040805160608101825292909101546fffffffffffffffffffffffffffffffff8116835267ffffffffffffffff7001000000000000000000000000000000008204811694840185905278010000000000000000000000000000000000000000000000009091041690820152915042111561185d576000600483815481106115b157fe5b6000918252602090912001546040517f70a0823100000000000000000000000000000000000000000000000000000000815273ffffffffffffffffffffffffffffffffffffffff909116906370a0823190611610903090600401612fdf565b60206040518083038186803b15801561162857600080fd5b505afa15801561163c573d6000803e3d6000fd5b505050506040513d601f19601f820116820180604052508101906116609190612e76565b9050801561171757600061168b836020015167ffffffffffffffff16426126da90919063ffffffff16565b905060006008546116b9856040015167ffffffffffffffff16610d4e6009548661261c90919063ffffffff16565b816116c057fe5b0490506117006116e6846116d98464e8d4a5100061261c565b816116e057fe5b046128be565b85516fffffffffffffffffffffffffffffffff169061290a565b6fffffffffffffffffffffffffffffffff16845250505b6117204261295c565b67ffffffffffffffff166020830152600380548391908590811061174057fe5b6000918252602091829020835191018054848401516040958601517fffffffffffffffffffffffffffffffff000000000000000000000000000000009092166fffffffffffffffffffffffffffffffff909416939093177fffffffffffffffff0000000000000000ffffffffffffffffffffffffffffffff1670010000000000000000000000000000000067ffffffffffffffff948516021777ffffffffffffffffffffffffffffffffffffffffffffffff16780100000000000000000000000000000000000000000000000093909116929092029190911790558301518351915185927f0fc9545022a542541ad085d091fb09a2ab36fee366a4576ab63714ea907ad353926118539290918691613613565b60405180910390a2505b919050565b8060005b818110156118925761188984848381811061187d57fe5b9050602002013561150e565b50600101611866565b50505050565b600481815481106118a557fe5b60009182526020909120015473ffffffffffffffffffffffffffffffffffffffff16905081565b60076020526000908152604090205460ff1681565b6040517fd505accf00000000000000000000000000000000000000000000000000000000815273ffffffffffffffffffffffffffffffffffffffff89169063d505accf9061193f908a908a908a908a908a908a908a90600401613031565b600060405180830381600087803b15801561195957600080fd5b505af115801561196d573d6000803e3d6000fd5b505050505050505050505050565b60025473ffffffffffffffffffffffffffffffffffffffff1681565b60005473ffffffffffffffffffffffffffffffffffffffff1633146119e8576040517f08c379a00000000000000000000000000000000000000000000000000000000081526004016105bd90613361565b611a3d83611a37600387815481106119fc57fe5b600091825260209091200154600854907801000000000000000000000000000000000000000000000000900467ffffffffffffffff166126da565b90612881565b600855611a498361295c565b60038581548110611a5657fe5b9060005260206000200160000160186101000a81548167ffffffffffffffff021916908367ffffffffffffffff1602179055508015611ae6578160058581548110611a9d57fe5b9060005260206000200160006101000a81548173ffffffffffffffffffffffffffffffffffffffff021916908373ffffffffffffffffffffffffffffffffffffffff1602179055505b80611b1f5760058481548110611af857fe5b60009182526020909120015473ffffffffffffffffffffffffffffffffffffffff16611b21565b815b73ffffffffffffffffffffffffffffffffffffffff16847f95895a6ab1df54420d241b55243258a33e61b2194db66c1179ec521aae8e18658584604051611b699291906135f5565b60405180910390a350505050565b60005473ffffffffffffffffffffffffffffffffffffffff1681565b611b9b612b8d565b611ba48461150e565b600085815260066020908152604080832073ffffffffffffffffffffffffffffffffffffffff871684529091529020805491925090611be39085612881565b81558151611c239064e8d4a5100090611c0f9087906fffffffffffffffffffffffffffffffff1661261c565b81611c1657fe5b60018401549190046129a0565b8160010181905550600060058681548110611c3a57fe5b60009182526020909120015473ffffffffffffffffffffffffffffffffffffffff1690508015611cf35781546040517f8bf6374200000000000000000000000000000000000000000000000000000000815273ffffffffffffffffffffffffffffffffffffffff831691638bf6374291611cc0918a9189918291600091906004016135b9565b600060405180830381600087803b158015611cda57600080fd5b505af1158015611cee573d6000803e3d6000fd5b505050505b611d3033308760048a81548110611d0657fe5b60009182526020909120015473ffffffffffffffffffffffffffffffffffffffff16929190612a00565b8373ffffffffffffffffffffffffffffffffffffffff16863373ffffffffffffffffffffffffffffffffffffffff167f02d7e648dd130fc184d383e55bb126ac4c9c60e8f94bf05acdf557ba2d540b47886040516108e991906135b0565b60066020908152600092835260408084209091529082529020805460019091015482565b60005473ffffffffffffffffffffffffffffffffffffffff163314611e03576040517f08c379a00000000000000000000000000000000000000000000000000000000081526004016105bd90613361565b60098190556040517fc6ce5eff3291fb2c1517b943daa5067ea76c83816bbf674307fbc7fea3b311d090611e389083906135b0565b60405180910390a150565b60095481565b7f000000000000000000000000000000000000000000000000000000000000000081565b60005473ffffffffffffffffffffffffffffffffffffffff163314611ebe576040517f08c379a00000000000000000000000000000000000000000000000000000000081526004016105bd90613361565b73ffffffffffffffffffffffffffffffffffffffff821660009081526007602052604090205460ff1615611f1e576040517f08c379a00000000000000000000000000000000000000000000000000000000081526004016105bd906133cb565b600854611f2b9084612881565b6008556004805460018181019092557f8a35acfbc15ff81a39ae7d344fd709f28e8600b4aa8c65c6b64bfe7fe36bd19b01805473ffffffffffffffffffffffffffffffffffffffff8086167fffffffffffffffffffffffff00000000000000000000000000000000000000009283161790925560058054938401815560009081527f036b6384b5eca791c62761152d0c79bb0604c104a5fb6f4eb0703f3154bb3db0909301805492851692909116919091179055604080516060810190915290815260039060208101611ffd4261295c565b67ffffffffffffffff1681526020016120158661295c565b67ffffffffffffffff9081169091528254600181810185556000948552602080862085519301805482870151604097880151871678010000000000000000000000000000000000000000000000000277ffffffffffffffffffffffffffffffffffffffffffffffff91909716700100000000000000000000000000000000027fffffffffffffffff0000000000000000ffffffffffffffffffffffffffffffff6fffffffffffffffffffffffffffffffff9097167fffffffffffffffffffffffffffffffff00000000000000000000000000000000909316929092179590951617939093169390931790915573ffffffffffffffffffffffffffffffffffffffff80871680865260079093529290932080547fffffffffffffffffffffffffffffffffffffffffffffffffffffffffffffff00168417905560045491841692909161215f916126da565b7f81ee0f8c5c46e2cb41984886f77a84181724abb86c32a5f6de539b07509d45e58660405161218e91906135b0565b60405180910390a4505050565b600581815481106118a557fe5b6121b0612b8d565b6121b98461150e565b6000858152600660209081526040808320338452909152812082518154939450909264e8d4a51000916121fe91906fffffffffffffffffffffffffffffffff1661261c565b8161220557fe5b04905060006122246109e984600101548461267390919063ffffffff16565b905061226864e8d4a5100061225886600001516fffffffffffffffffffffffffffffffff168961261c90919063ffffffff16565b8161225f57fe5b84919004612673565b6001840155825461227990876126da565b83556122bc73ffffffffffffffffffffffffffffffffffffffff7f0000000000000000000000000000000000000000000000000000000000000000168683612717565b6000600588815481106122cb57fe5b60009182526020909120015473ffffffffffffffffffffffffffffffffffffffff16905080156123835783546040517f8bf6374200000000000000000000000000000000000000000000000000000000815273ffffffffffffffffffffffffffffffffffffffff831691638bf6374291612350918c9133918c918991906004016135b9565b600060405180830381600087803b15801561236a57600080fd5b505af115801561237e573d6000803e3d6000fd5b505050505b612395868860048b8154811061086257fe5b8573ffffffffffffffffffffffffffffffffffffffff16883373ffffffffffffffffffffffffffffffffffffffff167f8166bf25f8a2b7ed3c85049207da4358d16edbed977d23fa2ee6f0dde3ec21328a6040516123f391906135b0565b60405180910390a4873373ffffffffffffffffffffffffffffffffffffffff167f71bab65ced2e5750775a0613be067df48ef06cf92a496ebf7663ae06609249548460405161244291906135b0565b60405180910390a35050505050505050565b6060808367ffffffffffffffff8111801561246e57600080fd5b50604051908082528060200260200182016040528015612498578160200160208202803683370190505b5091508367ffffffffffffffff811180156124b257600080fd5b506040519080825280602002602001820160405280156124e657816020015b60608152602001906001900390816124d15790505b50905060005b848110156125f757600060603088888581811061250557fe5b90506020028101906125179190613647565b604051612525929190612fb3565b600060405180830381855af49150503d8060008114612560576040519150601f19603f3d011682016040523d82523d6000602084013e612565565b606091505b50915091508180612574575085155b61257d82612b2d565b906125b5576040517f08c379a00000000000000000000000000000000000000000000000000000000081526004016105bd919061314a565b50818584815181106125c357fe5b602002602001019015159081151581525050808484815181106125e257fe5b602090810291909101015250506001016124ec565b50935093915050565b60015473ffffffffffffffffffffffffffffffffffffffff1681565b60008115806126375750508082028282828161263457fe5b04145b61266d576040517f08c379a00000000000000000000000000000000000000000000000000000000081526004016105bd90613502565b92915050565b60008183038183128015906126885750838113155b8061269d575060008312801561269d57508381135b6126d3576040517f08c379a00000000000000000000000000000000000000000000000000000000081526004016105bd90613470565b9392505050565b8082038281111561266d576040517f08c379a00000000000000000000000000000000000000000000000000000000081526004016105bd9061315d565b600060608473ffffffffffffffffffffffffffffffffffffffff1663a9059cbb858560405160240161274a92919061307f565b6040516020818303038152906040529060e01b6020820180517bffffffffffffffffffffffffffffffffffffffffffffffffffffffff83818316178352505050506040516127989190612fc3565b6000604051808303816000865af19150503d80600081146127d5576040519150601f19603f3d011682016040523d82523d6000602084013e6127da565b606091505b50915091508180156128045750805115806128045750808060200190518101906128049190612ce6565b61283a576040517f08c379a00000000000000000000000000000000000000000000000000000000081526004016105bd906131cb565b5050505050565b60008082121561287d576040517f08c379a00000000000000000000000000000000000000000000000000000000081526004016105bd90613194565b5090565b8181018181101561266d576040517f08c379a00000000000000000000000000000000000000000000000000000000081526004016105bd9061332a565b60006fffffffffffffffffffffffffffffffff82111561287d576040517f08c379a00000000000000000000000000000000000000000000000000000000081526004016105bd906132f3565b8181016fffffffffffffffffffffffffffffffff808316908216101561266d576040517f08c379a00000000000000000000000000000000000000000000000000000000081526004016105bd9061332a565b600067ffffffffffffffff82111561287d576040517f08c379a00000000000000000000000000000000000000000000000000000000081526004016105bd90613402565b60008282018183128015906129b55750838112155b806129ca57506000831280156129ca57508381125b6126d3576040517f08c379a00000000000000000000000000000000000000000000000000000000081526004016105bd90613202565b600060608573ffffffffffffffffffffffffffffffffffffffff166323b872dd868686604051602401612a3593929190613000565b6040516020818303038152906040529060e01b6020820180517bffffffffffffffffffffffffffffffffffffffffffffffffffffffff8381831617835250505050604051612a839190612fc3565b6000604051808303816000865af19150503d8060008114612ac0576040519150601f19603f3d011682016040523d82523d6000602084013e612ac5565b606091505b5091509150818015612aef575080511580612aef575080806020019051810190612aef9190612ce6565b612b25576040517f08c379a00000000000000000000000000000000000000000000000000000000081526004016105bd906134cd565b505050505050565b6060604482511015612b73575060408051808201909152601d81527f5472616e73616374696f6e2072657665727465642073696c656e746c79000000602082015261185d565b6004820191508180602001905181019061266d9190612da5565b604080516060810182526000808252602082018190529181019190915290565b60008083601f840112612bbe578182fd5b50813567ffffffffffffffff811115612bd5578182fd5b6020830191508360208083028501011115612bef57600080fd5b9250929050565b600060208284031215612c07578081fd5b81356126d3816136d6565b600080600060608486031215612c26578182fd5b8335612c31816136d6565b92506020840135612c41816136fb565b91506040840135612c51816136fb565b809150509250925092565b600080600060408486031215612c70578283fd5b833567ffffffffffffffff811115612c86578384fd5b612c9286828701612bad565b9094509250506020840135612c51816136fb565b60008060208385031215612cb8578182fd5b823567ffffffffffffffff811115612cce578283fd5b612cda85828601612bad565b90969095509350505050565b600060208284031215612cf7578081fd5b81516126d3816136fb565b600060208284031215612d13578081fd5b81516126d3816136d6565b600080600080600080600080610100898b031215612d3a578384fd5b8835612d45816136d6565b97506020890135612d55816136d6565b96506040890135612d65816136d6565b9550606089013594506080890135935060a089013560ff81168114612d88578384fd5b979a969950949793969295929450505060c08201359160e0013590565b600060208284031215612db6578081fd5b815167ffffffffffffffff80821115612dcd578283fd5b818401915084601f830112612de0578283fd5b815181811115612dee578384fd5b60405160207fffffffffffffffffffffffffffffffffffffffffffffffffffffffffffffffe0601f8401168201018181108482111715612e2c578586fd5b604052818152838201602001871015612e43578485fd5b612e548260208301602087016136aa565b9695505050505050565b600060208284031215612e6f578081fd5b5035919050565b600060208284031215612e87578081fd5b5051919050565b60008060408385031215612ea0578182fd5b823591506020830135612eb2816136d6565b809150509250929050565b600080600060608486031215612ed1578081fd5b833592506020840135612ee3816136d6565b91506040840135612c51816136d6565b600080600060608486031215612f07578081fd5b83359250602084013591506040840135612c51816136d6565b60008060008060808587031215612f35578182fd5b84359350602085013592506040850135612f4e816136d6565b91506060850135612f5e816136fb565b939692955090935050565b60008151808452612f818160208601602086016136aa565b601f017fffffffffffffffffffffffffffffffffffffffffffffffffffffffffffffffe0169290920160200192915050565b6000828483379101908152919050565b60008251612fd58184602087016136aa565b9190910192915050565b73ffffffffffffffffffffffffffffffffffffffff91909116815260200190565b73ffffffffffffffffffffffffffffffffffffffff9384168152919092166020820152604081019190915260600190565b73ffffffffffffffffffffffffffffffffffffffff97881681529590961660208601526040850193909352606084019190915260ff16608083015260a082015260c081019190915260e00190565b73ffffffffffffffffffffffffffffffffffffffff929092168252602082015260400190565b604080825283519082018190526000906020906060840190828701845b828110156130e05781511515845292840192908401906001016130c2565b505050838103828501528085516130f781846135b0565b91508192508381028201848801865b8381101561313057858303855261311e838351612f69565b94870194925090860190600101613106565b50909998505050505050505050565b901515815260200190565b6000602082526126d36020830184612f69565b60208082526015908201527f426f72696e674d6174683a20556e646572666c6f770000000000000000000000604082015260600190565b6020808252600b908201527f496e7465676572203c2030000000000000000000000000000000000000000000604082015260600190565b6020808252601c908201527f426f72696e6745524332303a205472616e73666572206661696c656400000000604082015260600190565b60208082526021908201527f5369676e6564536166654d6174683a206164646974696f6e206f766572666c6f60408201527f7700000000000000000000000000000000000000000000000000000000000000606082015260800190565b60208082526015908201527f4f776e61626c653a207a65726f20616464726573730000000000000000000000604082015260600190565b60208082526029908201527f4d61737465724368656656323a206d696772617465642062616c616e6365206d60408201527f757374206d617463680000000000000000000000000000000000000000000000606082015260800190565b6020808252601c908201527f426f72696e674d6174683a2075696e74313238204f766572666c6f7700000000604082015260600190565b60208082526018908201527f426f72696e674d6174683a20416464204f766572666c6f770000000000000000604082015260600190565b6020808252818101527f4f776e61626c653a2063616c6c6572206973206e6f7420746865206f776e6572604082015260600190565b6020808252818101527f4f776e61626c653a2063616c6c657220213d2070656e64696e67206f776e6572604082015260600190565b60208082526013908201527f546f6b656e20616c726561647920616464656400000000000000000000000000604082015260600190565b6020808252601b908201527f426f72696e674d6174683a2075696e743634204f766572666c6f770000000000604082015260600190565b6020808252601d908201527f4d61737465724368656656323a206e6f206d69677261746f7220736574000000604082015260600190565b60208082526024908201527f5369676e6564536166654d6174683a207375627472616374696f6e206f76657260408201527f666c6f7700000000000000000000000000000000000000000000000000000000606082015260800190565b6020808252818101527f426f72696e6745524332303a205472616e7366657246726f6d206661696c6564604082015260600190565b60208082526018908201527f426f72696e674d6174683a204d756c204f766572666c6f770000000000000000604082015260600190565b81516fffffffffffffffffffffffffffffffff16815260208083015167ffffffffffffffff90811691830191909152604092830151169181019190915260600190565b6fffffffffffffffffffffffffffffffff93909316835267ffffffffffffffff918216602084015216604082015260600190565b90815260200190565b94855273ffffffffffffffffffffffffffffffffffffffff93841660208601529190921660408401526060830191909152608082015260a00190565b9182521515602082015260400190565b918252602082015260400190565b67ffffffffffffffff93909316835260208301919091526fffffffffffffffffffffffffffffffff16604082015260600190565b60008083357fffffffffffffffffffffffffffffffffffffffffffffffffffffffffffffffe184360301811261367b578283fd5b83018035915067ffffffffffffffff821115613695578283fd5b602001915036819003821315612bef57600080fd5b60005b838110156136c55781810151838201526020016136ad565b838111156118925750506000910152565b73ffffffffffffffffffffffffffffffffffffffff811681146136f857600080fd5b50565b80151581146136f857600080fdfea26469706673582212208a9741aa15cad2b5c583273bc6ca6c19fd6e05927e5bf3025701cf500c9d363c64736f6c634300060c0033",
  "devdoc": {
    "kind": "dev",
    "methods": {
      "add(uint256,address,address)": {
        "params": {
          "_lpToken": "Address of the LP ERC-20 token.",
          "_rewarder": "Address of the rewarder delegate.",
          "allocPoint": "AP of the new pool."
        }
      },
      "constructor": {
        "params": {
          "_sushi": "The SUSHI token contract address."
        }
      },
      "deposit(uint256,uint256,address)": {
        "params": {
          "amount": "LP token amount to deposit.",
          "pid": "The index of the pool. See `poolInfo`.",
          "to": "The receiver of `amount` deposit benefit."
        }
      },
      "emergencyWithdraw(uint256,address)": {
        "params": {
          "pid": "The index of the pool. See `poolInfo`.",
          "to": "Receiver of the LP tokens."
        }
      },
      "harvest(uint256,address)": {
        "params": {
          "pid": "The index of the pool. See `poolInfo`.",
          "to": "Receiver of SUSHI rewards."
        }
      },
      "massUpdatePools(uint256[])": {
        "params": {
          "pids": "Pool IDs of all to be updated. Make sure to update all active pools."
        }
      },
      "migrate(uint256)": {
        "params": {
          "_pid": "The index of the pool. See `poolInfo`."
        }
      },
      "pendingSushi(uint256,address)": {
        "params": {
          "_pid": "The index of the pool. See `poolInfo`.",
          "_user": "Address of user."
        },
        "returns": {
          "pending": "SUSHI reward for a given user."
        }
      },
      "set(uint256,uint256,address,bool)": {
        "params": {
          "_allocPoint": "New AP of the pool.",
          "_pid": "The index of the pool. See `poolInfo`.",
          "_rewarder": "Address of the rewarder delegate.",
          "overwrite": "True if _rewarder should be `set`. Otherwise `_rewarder` is ignored."
        }
      },
      "setMigrator(address)": {
        "params": {
          "_migrator": "The contract address to set."
        }
      },
      "setSushiPerSecond(uint256)": {
        "params": {
          "_sushiPerSecond": "The amount of Sushi to be distributed per second."
        }
      },
      "updatePool(uint256)": {
        "params": {
          "pid": "The index of the pool. See `poolInfo`."
        },
        "returns": {
          "pool": "Returns the pool that was updated."
        }
      },
      "withdraw(uint256,uint256,address)": {
        "params": {
          "amount": "LP token amount to withdraw.",
          "pid": "The index of the pool. See `poolInfo`.",
          "to": "Receiver of the LP tokens."
        }
      },
      "withdrawAndHarvest(uint256,uint256,address)": {
        "params": {
          "amount": "LP token amount to withdraw.",
          "pid": "The index of the pool. See `poolInfo`.",
          "to": "Receiver of the LP tokens and SUSHI rewards."
        }
      }
    },
    "stateVariables": {
      "addedTokens": {
        "details": "Tokens added"
      },
      "totalAllocPoint": {
        "details": "Total allocation points. Must be the sum of all allocation points in all pools."
      }
    },
    "version": 1
  },
  "userdoc": {
    "kind": "user",
    "methods": {
      "SUSHI()": {
        "notice": "Address of SUSHI contract."
      },
      "add(uint256,address,address)": {
        "notice": "Add a new LP to the pool. Can only be called by the owner. DO NOT add the same LP token more than once. Rewards will be messed up if you do."
      },
      "deposit(uint256,uint256,address)": {
        "notice": "Deposit LP tokens to MCV2 for SUSHI allocation."
      },
      "emergencyWithdraw(uint256,address)": {
        "notice": "Withdraw without caring about rewards. EMERGENCY ONLY."
      },
      "harvest(uint256,address)": {
        "notice": "Harvest proceeds for transaction sender to `to`."
      },
      "lpToken(uint256)": {
        "notice": "Address of the LP token for each MCV2 pool."
      },
      "massUpdatePools(uint256[])": {
        "notice": "Update reward variables for all pools. Be careful of gas spending!"
      },
      "migrate(uint256)": {
        "notice": "Migrate LP token to another LP contract through the `migrator` contract."
      },
      "pendingSushi(uint256,address)": {
        "notice": "View function to see pending SUSHI on frontend."
      },
      "poolInfo(uint256)": {
        "notice": "Info of each MCV2 pool."
      },
      "poolLength()": {
        "notice": "Returns the number of MCV2 pools."
      },
      "rewarder(uint256)": {
        "notice": "Address of each `IRewarder` contract in MCV2."
      },
      "set(uint256,uint256,address,bool)": {
        "notice": "Update the given pool's SUSHI allocation point and `IRewarder` contract. Can only be called by the owner."
      },
      "setMigrator(address)": {
        "notice": "Set the `migrator` contract. Can only be called by the owner."
      },
      "setSushiPerSecond(uint256)": {
        "notice": "Sets the sushi per second to be distributed. Can only be called by the owner."
      },
      "updatePool(uint256)": {
        "notice": "Update reward variables of the given pool."
      },
      "userInfo(uint256,address)": {
        "notice": "Info of each user that stakes LP tokens."
      },
      "withdraw(uint256,uint256,address)": {
        "notice": "Withdraw LP tokens from MCV2."
      },
      "withdrawAndHarvest(uint256,uint256,address)": {
        "notice": "Withdraw LP tokens from MCV2 and harvest proceeds for transaction sender to `to`."
      }
    },
    "notice": "The (older) MasterChef contract gives out a constant number of SUSHI tokens per block. It is the only address with minting rights for SUSHI. The idea for this MasterChef V2 (MCV2) contract is therefore to be the owner of a dummy token that is deposited into the MasterChef V1 (MCV1) contract. The allocation point for this pool on MCV1 is the total allocation point for all pools that receive double incentives.",
    "version": 1
  },
  "storageLayout": {
    "storage": [
      {
        "astId": 149,
        "contract": "contracts/MiniChefV2.sol:MiniChefV2",
        "label": "owner",
        "offset": 0,
        "slot": "0",
        "type": "t_address"
      },
      {
        "astId": 151,
        "contract": "contracts/MiniChefV2.sol:MiniChefV2",
        "label": "pendingOwner",
        "offset": 0,
        "slot": "1",
        "type": "t_address"
      },
      {
        "astId": 2142,
        "contract": "contracts/MiniChefV2.sol:MiniChefV2",
        "label": "migrator",
        "offset": 0,
        "slot": "2",
        "type": "t_contract(IMigratorChef)2108"
      },
      {
        "astId": 2146,
        "contract": "contracts/MiniChefV2.sol:MiniChefV2",
        "label": "poolInfo",
        "offset": 0,
        "slot": "3",
        "type": "t_array(t_struct(PoolInfo)2137_storage)dyn_storage"
      },
      {
        "astId": 2150,
        "contract": "contracts/MiniChefV2.sol:MiniChefV2",
        "label": "lpToken",
        "offset": 0,
        "slot": "4",
        "type": "t_array(t_contract(IERC20)337)dyn_storage"
      },
      {
        "astId": 2154,
        "contract": "contracts/MiniChefV2.sol:MiniChefV2",
        "label": "rewarder",
        "offset": 0,
        "slot": "5",
        "type": "t_array(t_contract(IRewarder)3376)dyn_storage"
      },
      {
        "astId": 2161,
        "contract": "contracts/MiniChefV2.sol:MiniChefV2",
        "label": "userInfo",
        "offset": 0,
        "slot": "6",
        "type": "t_mapping(t_uint256,t_mapping(t_address,t_struct(UserInfo)2130_storage))"
      },
      {
        "astId": 2166,
        "contract": "contracts/MiniChefV2.sol:MiniChefV2",
        "label": "addedTokens",
        "offset": 0,
        "slot": "7",
        "type": "t_mapping(t_address,t_bool)"
      },
      {
        "astId": 2169,
        "contract": "contracts/MiniChefV2.sol:MiniChefV2",
        "label": "totalAllocPoint",
        "offset": 0,
        "slot": "8",
        "type": "t_uint256"
      },
      {
        "astId": 2171,
        "contract": "contracts/MiniChefV2.sol:MiniChefV2",
        "label": "sushiPerSecond",
        "offset": 0,
        "slot": "9",
        "type": "t_uint256"
      }
    ],
    "types": {
      "t_address": {
        "encoding": "inplace",
        "label": "address",
        "numberOfBytes": "20"
      },
      "t_array(t_contract(IERC20)337)dyn_storage": {
        "base": "t_contract(IERC20)337",
        "encoding": "dynamic_array",
        "label": "contract IERC20[]",
        "numberOfBytes": "32"
      },
      "t_array(t_contract(IRewarder)3376)dyn_storage": {
        "base": "t_contract(IRewarder)3376",
        "encoding": "dynamic_array",
        "label": "contract IRewarder[]",
        "numberOfBytes": "32"
      },
      "t_array(t_struct(PoolInfo)2137_storage)dyn_storage": {
        "base": "t_struct(PoolInfo)2137_storage",
        "encoding": "dynamic_array",
        "label": "struct MiniChefV2.PoolInfo[]",
        "numberOfBytes": "32"
      },
      "t_bool": {
        "encoding": "inplace",
        "label": "bool",
        "numberOfBytes": "1"
      },
      "t_contract(IERC20)337": {
        "encoding": "inplace",
        "label": "contract IERC20",
        "numberOfBytes": "20"
      },
      "t_contract(IMigratorChef)2108": {
        "encoding": "inplace",
        "label": "contract IMigratorChef",
        "numberOfBytes": "20"
      },
      "t_contract(IRewarder)3376": {
        "encoding": "inplace",
        "label": "contract IRewarder",
        "numberOfBytes": "20"
      },
      "t_int256": {
        "encoding": "inplace",
        "label": "int256",
        "numberOfBytes": "32"
      },
      "t_mapping(t_address,t_bool)": {
        "encoding": "mapping",
        "key": "t_address",
        "label": "mapping(address => bool)",
        "numberOfBytes": "32",
        "value": "t_bool"
      },
      "t_mapping(t_address,t_struct(UserInfo)2130_storage)": {
        "encoding": "mapping",
        "key": "t_address",
        "label": "mapping(address => struct MiniChefV2.UserInfo)",
        "numberOfBytes": "32",
        "value": "t_struct(UserInfo)2130_storage"
      },
      "t_mapping(t_uint256,t_mapping(t_address,t_struct(UserInfo)2130_storage))": {
        "encoding": "mapping",
        "key": "t_uint256",
        "label": "mapping(uint256 => mapping(address => struct MiniChefV2.UserInfo))",
        "numberOfBytes": "32",
        "value": "t_mapping(t_address,t_struct(UserInfo)2130_storage)"
      },
      "t_struct(PoolInfo)2137_storage": {
        "encoding": "inplace",
        "label": "struct MiniChefV2.PoolInfo",
        "members": [
          {
            "astId": 2132,
            "contract": "contracts/MiniChefV2.sol:MiniChefV2",
            "label": "accSushiPerShare",
            "offset": 0,
            "slot": "0",
            "type": "t_uint128"
          },
          {
            "astId": 2134,
            "contract": "contracts/MiniChefV2.sol:MiniChefV2",
            "label": "lastRewardTime",
            "offset": 16,
            "slot": "0",
            "type": "t_uint64"
          },
          {
            "astId": 2136,
            "contract": "contracts/MiniChefV2.sol:MiniChefV2",
            "label": "allocPoint",
            "offset": 24,
            "slot": "0",
            "type": "t_uint64"
          }
        ],
        "numberOfBytes": "32"
      },
      "t_struct(UserInfo)2130_storage": {
        "encoding": "inplace",
        "label": "struct MiniChefV2.UserInfo",
        "members": [
          {
            "astId": 2127,
            "contract": "contracts/MiniChefV2.sol:MiniChefV2",
            "label": "amount",
            "offset": 0,
            "slot": "0",
            "type": "t_uint256"
          },
          {
            "astId": 2129,
            "contract": "contracts/MiniChefV2.sol:MiniChefV2",
            "label": "rewardDebt",
            "offset": 0,
            "slot": "1",
            "type": "t_int256"
          }
        ],
        "numberOfBytes": "64"
      },
      "t_uint128": {
        "encoding": "inplace",
        "label": "uint128",
        "numberOfBytes": "16"
      },
      "t_uint256": {
        "encoding": "inplace",
        "label": "uint256",
        "numberOfBytes": "32"
      },
      "t_uint64": {
        "encoding": "inplace",
        "label": "uint64",
        "numberOfBytes": "8"
      }
    }
  }
}