{
  "address": "0x78746F220eA0A5630988A2ab81805e8F01D802D0",
  "abi": [
    {
      "inputs": [
        {
          "internalType": "address",
          "name": "_factory",
          "type": "address"
        },
        {
          "internalType": "address",
          "name": "_bar",
          "type": "address"
        },
        {
          "internalType": "address",
          "name": "_sushi",
          "type": "address"
        },
        {
          "internalType": "address",
          "name": "_weth",
          "type": "address"
        }
      ],
      "stateMutability": "nonpayable",
      "type": "constructor"
    },
    {
      "anonymous": false,
      "inputs": [
        {
          "indexed": true,
          "internalType": "address",
          "name": "token",
          "type": "address"
        },
        {
          "indexed": true,
          "internalType": "address",
          "name": "bridge",
          "type": "address"
        }
      ],
      "name": "LogBridgeSet",
      "type": "event"
    },
    {
      "anonymous": false,
      "inputs": [
        {
          "indexed": true,
          "internalType": "address",
          "name": "server",
          "type": "address"
        },
        {
          "indexed": true,
          "internalType": "address",
          "name": "token0",
          "type": "address"
        },
        {
          "indexed": true,
          "internalType": "address",
          "name": "token1",
          "type": "address"
        },
        {
          "indexed": false,
          "internalType": "uint256",
          "name": "amount0",
          "type": "uint256"
        },
        {
          "indexed": false,
          "internalType": "uint256",
          "name": "amount1",
          "type": "uint256"
        },
        {
          "indexed": false,
          "internalType": "uint256",
          "name": "amountSUSHI",
          "type": "uint256"
        }
      ],
      "name": "LogConvert",
      "type": "event"
    },
    {
      "anonymous": false,
      "inputs": [
        {
          "indexed": true,
          "internalType": "address",
          "name": "previousOwner",
          "type": "address"
        },
        {
          "indexed": true,
          "internalType": "address",
          "name": "newOwner",
          "type": "address"
        }
      ],
      "name": "OwnershipTransferred",
      "type": "event"
    },
    {
      "inputs": [],
      "name": "bar",
      "outputs": [
        {
          "internalType": "address",
          "name": "",
          "type": "address"
        }
      ],
      "stateMutability": "view",
      "type": "function"
    },
    {
      "inputs": [
        {
          "internalType": "address",
          "name": "token",
          "type": "address"
        }
      ],
      "name": "bridgeFor",
      "outputs": [
        {
          "internalType": "address",
          "name": "bridge",
          "type": "address"
        }
      ],
      "stateMutability": "view",
      "type": "function"
    },
    {
      "inputs": [],
      "name": "claimOwnership",
      "outputs": [],
      "stateMutability": "nonpayable",
      "type": "function"
    },
    {
      "inputs": [
        {
          "internalType": "address",
          "name": "token0",
          "type": "address"
        },
        {
          "internalType": "address",
          "name": "token1",
          "type": "address"
        }
      ],
      "name": "convert",
      "outputs": [],
      "stateMutability": "nonpayable",
      "type": "function"
    },
    {
      "inputs": [
        {
          "internalType": "address[]",
          "name": "token0",
          "type": "address[]"
        },
        {
          "internalType": "address[]",
          "name": "token1",
          "type": "address[]"
        }
      ],
      "name": "convertMultiple",
      "outputs": [],
      "stateMutability": "nonpayable",
      "type": "function"
    },
    {
      "inputs": [],
      "name": "factory",
      "outputs": [
        {
          "internalType": "contract IUniswapV2Factory",
          "name": "",
          "type": "address"
        }
      ],
      "stateMutability": "view",
      "type": "function"
    },
    {
      "inputs": [],
      "name": "owner",
      "outputs": [
        {
          "internalType": "address",
          "name": "",
          "type": "address"
        }
      ],
      "stateMutability": "view",
      "type": "function"
    },
    {
      "inputs": [],
      "name": "pendingOwner",
      "outputs": [
        {
          "internalType": "address",
          "name": "",
          "type": "address"
        }
      ],
      "stateMutability": "view",
      "type": "function"
    },
    {
      "inputs": [
        {
          "internalType": "address",
          "name": "token",
          "type": "address"
        },
        {
          "internalType": "address",
          "name": "bridge",
          "type": "address"
        }
      ],
      "name": "setBridge",
      "outputs": [],
      "stateMutability": "nonpayable",
      "type": "function"
    },
    {
      "inputs": [
        {
          "internalType": "address",
          "name": "newOwner",
          "type": "address"
        },
        {
          "internalType": "bool",
          "name": "direct",
          "type": "bool"
        },
        {
          "internalType": "bool",
          "name": "renounce",
          "type": "bool"
        }
      ],
      "name": "transferOwnership",
      "outputs": [],
      "stateMutability": "nonpayable",
      "type": "function"
    }
  ],
  "transactionHash": "0x7bb8bc3d08997c5fabdda8905eb583e04e2dbc9e9ff992f0a12481c712fc1943",
  "args": [
    "0xB21F007791c54f168828b3b401c773395D75b64E",
    "0xa4F34e9bD8782a128019E5F51e88CF54b45892E9",
    "0xE7F8B27BbF02A67fbd560f8F23556805eE79B3Bc",
    "0xEBbc3452Cc911591e4F18f3b36727Df45d6bd1f9"
  ],
  "numDeployments": 1,
  "solcInputHash": "07808dab885cf014224cc1e1ced4ce0f",
  "bytecode": "0x61010060405234801561001157600080fd5b50604051611daa380380611daa8339818101604052608081101561003457600080fd5b5080516020820151604080840151606090940151600080546001600160a01b0319163390811782559251949593949192917f8be0079c531659141344cd1fd0a4f28419497f9722a3daafe3b4186f6b6457e0908290a36001600160601b0319606094851b811660805292841b831660a05290831b821660c05290911b1660e05260805160601c60a05160601c60c05160601c60e05160601c611c47610163600039806107a7528061094552806110f7528061114e5280611341528061139852806113c152806113ee5280611445528061146e525080610750528061103a52806110a652806111ae528061121a528061127e52806112ea52806115f6525080610a2852806110c8528061123c528061130c52806116185250806109e85280610a4e52806116485250611c476000f3fe608060405234801561001057600080fd5b50600436106100be5760003560e01c8063a761a93911610076578063c45a01551161005b578063c45a0155146102ac578063e30c3978146102b4578063febb0f7e146102bc576100be565b8063a761a9391461023e578063bd1b820c14610271576100be565b80634e71e0c8116100a75780634e71e0c8146101ca5780638da5cb5b146101d25780639d22ae8c14610203576100be565b8063078dfbe7146100c3578063303e6aa414610108575b600080fd5b610106600480360360608110156100d957600080fd5b5073ffffffffffffffffffffffffffffffffffffffff8135169060208101351515906040013515156102c4565b005b6101066004803603604081101561011e57600080fd5b81019060208101813564010000000081111561013957600080fd5b82018360208201111561014b57600080fd5b8035906020019184602083028401116401000000008311171561016d57600080fd5b91939092909160208101903564010000000081111561018b57600080fd5b82018360208201111561019d57600080fd5b803590602001918460208302840111640100000000831117156101bf57600080fd5b5090925090506104ad565b610106610591565b6101da6106ac565b6040805173ffffffffffffffffffffffffffffffffffffffff9092168252519081900360200190f35b6101066004803603604081101561021957600080fd5b5073ffffffffffffffffffffffffffffffffffffffff813581169160200135166106c8565b6101da6004803603602081101561025457600080fd5b503573ffffffffffffffffffffffffffffffffffffffff16610915565b6101066004803603604081101561028757600080fd5b5073ffffffffffffffffffffffffffffffffffffffff8135811691602001351661096a565b6101da6109e6565b6101da610a0a565b6101da610a26565b60005473ffffffffffffffffffffffffffffffffffffffff16331461034a57604080517f08c379a000000000000000000000000000000000000000000000000000000000815260206004820181905260248201527f4f776e61626c653a2063616c6c6572206973206e6f7420746865206f776e6572604482015290519081900360640190fd5b81156104675773ffffffffffffffffffffffffffffffffffffffff83161515806103715750805b6103dc57604080517f08c379a000000000000000000000000000000000000000000000000000000000815260206004820152601560248201527f4f776e61626c653a207a65726f20616464726573730000000000000000000000604482015290519081900360640190fd5b6000805460405173ffffffffffffffffffffffffffffffffffffffff808716939216917f8be0079c531659141344cd1fd0a4f28419497f9722a3daafe3b4186f6b6457e091a3600080547fffffffffffffffffffffffff00000000000000000000000000000000000000001673ffffffffffffffffffffffffffffffffffffffff85161790556104a8565b600180547fffffffffffffffffffffffff00000000000000000000000000000000000000001673ffffffffffffffffffffffffffffffffffffffff85161790555b505050565b33321461051b57604080517f08c379a000000000000000000000000000000000000000000000000000000000815260206004820152601860248201527f53757368694d616b65723a206d7573742075736520454f410000000000000000604482015290519081900360640190fd5b8260005b818110156105895761058186868381811061053657fe5b9050602002013573ffffffffffffffffffffffffffffffffffffffff1685858481811061055f57fe5b9050602002013573ffffffffffffffffffffffffffffffffffffffff16610a4a565b60010161051f565b505050505050565b60015473ffffffffffffffffffffffffffffffffffffffff1633811461061857604080517f08c379a000000000000000000000000000000000000000000000000000000000815260206004820181905260248201527f4f776e61626c653a2063616c6c657220213d2070656e64696e67206f776e6572604482015290519081900360640190fd5b6000805460405173ffffffffffffffffffffffffffffffffffffffff808516939216917f8be0079c531659141344cd1fd0a4f28419497f9722a3daafe3b4186f6b6457e091a36000805473ffffffffffffffffffffffffffffffffffffffff9092167fffffffffffffffffffffffff0000000000000000000000000000000000000000928316179055600180549091169055565b60005473ffffffffffffffffffffffffffffffffffffffff1681565b60005473ffffffffffffffffffffffffffffffffffffffff16331461074e57604080517f08c379a000000000000000000000000000000000000000000000000000000000815260206004820181905260248201527f4f776e61626c653a2063616c6c6572206973206e6f7420746865206f776e6572604482015290519081900360640190fd5b7f000000000000000000000000000000000000000000000000000000000000000073ffffffffffffffffffffffffffffffffffffffff168273ffffffffffffffffffffffffffffffffffffffff16141580156107f657507f000000000000000000000000000000000000000000000000000000000000000073ffffffffffffffffffffffffffffffffffffffff168273ffffffffffffffffffffffffffffffffffffffff1614155b801561082e57508073ffffffffffffffffffffffffffffffffffffffff168273ffffffffffffffffffffffffffffffffffffffff1614155b61089957604080517f08c379a000000000000000000000000000000000000000000000000000000000815260206004820152601a60248201527f53757368694d616b65723a20496e76616c696420627269646765000000000000604482015290519081900360640190fd5b73ffffffffffffffffffffffffffffffffffffffff82811660008181526002602052604080822080547fffffffffffffffffffffffff0000000000000000000000000000000000000000169486169485179055517f2e103aa707acc565f9a1547341914802b2bfe977fd79c595209f248ae4b006139190a35050565b73ffffffffffffffffffffffffffffffffffffffff808216600090815260026020526040902054168061096557507f00000000000000000000000000000000000000000000000000000000000000005b919050565b3332146109d857604080517f08c379a000000000000000000000000000000000000000000000000000000000815260206004820152601860248201527f53757368694d616b65723a206d7573742075736520454f410000000000000000604482015290519081900360640190fd5b6109e28282610a4a565b5050565b7f000000000000000000000000000000000000000000000000000000000000000081565b60015473ffffffffffffffffffffffffffffffffffffffff1681565b7f000000000000000000000000000000000000000000000000000000000000000081565b60007f000000000000000000000000000000000000000000000000000000000000000073ffffffffffffffffffffffffffffffffffffffff1663e6a4390584846040518363ffffffff1660e01b8152600401808373ffffffffffffffffffffffffffffffffffffffff1681526020018273ffffffffffffffffffffffffffffffffffffffff1681526020019250505060206040518083038186803b158015610af157600080fd5b505afa158015610b05573d6000803e3d6000fd5b505050506040513d6020811015610b1b57600080fd5b5051905073ffffffffffffffffffffffffffffffffffffffff8116610ba157604080517f08c379a000000000000000000000000000000000000000000000000000000000815260206004820152601860248201527f53757368694d616b65723a20496e76616c696420706169720000000000000000604482015290519081900360640190fd5b610c56818273ffffffffffffffffffffffffffffffffffffffff166370a08231306040518263ffffffff1660e01b8152600401808273ffffffffffffffffffffffffffffffffffffffff16815260200191505060206040518083038186803b158015610c0c57600080fd5b505afa158015610c20573d6000803e3d6000fd5b505050506040513d6020811015610c3657600080fd5b505173ffffffffffffffffffffffffffffffffffffffff84169190610e17565b6000808273ffffffffffffffffffffffffffffffffffffffff166389afcb44306040518263ffffffff1660e01b8152600401808273ffffffffffffffffffffffffffffffffffffffff1681526020019150506040805180830381600087803b158015610cc157600080fd5b505af1158015610cd5573d6000803e3d6000fd5b505050506040513d6040811015610ceb57600080fd5b508051602091820151604080517f0dfe1681000000000000000000000000000000000000000000000000000000008152905192955090935073ffffffffffffffffffffffffffffffffffffffff861692630dfe168192600480840193829003018186803b158015610d5b57600080fd5b505afa158015610d6f573d6000803e3d6000fd5b505050506040513d6020811015610d8557600080fd5b505173ffffffffffffffffffffffffffffffffffffffff868116911614610da857905b73ffffffffffffffffffffffffffffffffffffffff808516908616337fd06b1d7ed79b664d17472c6f6997b929f1abe463ccccb4e5b6a0038f2f730c158585610df38b8b8484610ff4565b60408051938452602084019290925282820152519081900360600190a45050505050565b6040805173ffffffffffffffffffffffffffffffffffffffff8481166024830152604480830185905283518084039091018152606490920183526020820180517bffffffffffffffffffffffffffffffffffffffffffffffffffffffff167fa9059cbb00000000000000000000000000000000000000000000000000000000178152925182516000946060949389169392918291908083835b60208310610eed57805182527fffffffffffffffffffffffffffffffffffffffffffffffffffffffffffffffe09092019160209182019101610eb0565b6001836020036101000a0380198251168184511680821785525050505050509050019150506000604051808303816000865af19150503d8060008114610f4f576040519150601f19603f3d011682016040523d82523d6000602084013e610f54565b606091505b5091509150818015610f82575080511580610f825750808060200190516020811015610f7f57600080fd5b50515b610fed57604080517f08c379a000000000000000000000000000000000000000000000000000000000815260206004820152601a60248201527f5361666545524332303a205472616e73666572206661696c6564000000000000604482015290519081900360640190fd5b5050505050565b60008373ffffffffffffffffffffffffffffffffffffffff168573ffffffffffffffffffffffffffffffffffffffff1614156111ac5760006110368484611576565b90507f000000000000000000000000000000000000000000000000000000000000000073ffffffffffffffffffffffffffffffffffffffff168673ffffffffffffffffffffffffffffffffffffffff1614156110f5576110ed73ffffffffffffffffffffffffffffffffffffffff7f0000000000000000000000000000000000000000000000000000000000000000167f000000000000000000000000000000000000000000000000000000000000000083610e17565b8091506111a6565b7f000000000000000000000000000000000000000000000000000000000000000073ffffffffffffffffffffffffffffffffffffffff168673ffffffffffffffffffffffffffffffffffffffff16141561117a576111737f0000000000000000000000000000000000000000000000000000000000000000826115ee565b91506111a6565b600061118587610915565b905061119387828430611643565b91506111a28182846000610ff4565b9250505b5061156e565b7f000000000000000000000000000000000000000000000000000000000000000073ffffffffffffffffffffffffffffffffffffffff168573ffffffffffffffffffffffffffffffffffffffff16141561127c5761126173ffffffffffffffffffffffffffffffffffffffff7f0000000000000000000000000000000000000000000000000000000000000000167f000000000000000000000000000000000000000000000000000000000000000085610e17565b6112758361126f86856115ee565b90611576565b905061156e565b7f000000000000000000000000000000000000000000000000000000000000000073ffffffffffffffffffffffffffffffffffffffff168473ffffffffffffffffffffffffffffffffffffffff16141561133f5761133173ffffffffffffffffffffffffffffffffffffffff7f0000000000000000000000000000000000000000000000000000000000000000167f000000000000000000000000000000000000000000000000000000000000000084610e17565b6112758261126f87866115ee565b7f000000000000000000000000000000000000000000000000000000000000000073ffffffffffffffffffffffffffffffffffffffff168573ffffffffffffffffffffffffffffffffffffffff1614156113ec576112757f00000000000000000000000000000000000000000000000000000000000000006113e78561126f887f00000000000000000000000000000000000000000000000000000000000000008830611643565b6115ee565b7f000000000000000000000000000000000000000000000000000000000000000073ffffffffffffffffffffffffffffffffffffffff168473ffffffffffffffffffffffffffffffffffffffff161415611494576112757f00000000000000000000000000000000000000000000000000000000000000006113e78461126f897f00000000000000000000000000000000000000000000000000000000000000008930611643565b600061149f86610915565b905060006114ac86610915565b90508573ffffffffffffffffffffffffffffffffffffffff168273ffffffffffffffffffffffffffffffffffffffff161415611500576114f982876114f38a868a30611643565b87610ff4565b925061156b565b8673ffffffffffffffffffffffffffffffffffffffff168173ffffffffffffffffffffffffffffffffffffffff16141561154b576114f98782876115468a868a30611643565b610ff4565b611568828261155c8a868a30611643565b6115468a868a30611643565b92505b50505b949350505050565b818101818110156115e857604080517f08c379a000000000000000000000000000000000000000000000000000000000815260206004820152601660248201527f536166654d6174683a20416464204f766572666c6f7700000000000000000000604482015290519081900360640190fd5b92915050565b600061163c837f0000000000000000000000000000000000000000000000000000000000000000847f0000000000000000000000000000000000000000000000000000000000000000611643565b9392505050565b6000807f000000000000000000000000000000000000000000000000000000000000000073ffffffffffffffffffffffffffffffffffffffff1663e6a4390587876040518363ffffffff1660e01b8152600401808373ffffffffffffffffffffffffffffffffffffffff1681526020018273ffffffffffffffffffffffffffffffffffffffff1681526020019250505060206040518083038186803b1580156116eb57600080fd5b505afa1580156116ff573d6000803e3d6000fd5b505050506040513d602081101561171557600080fd5b5051905073ffffffffffffffffffffffffffffffffffffffff811661179b57604080517f08c379a000000000000000000000000000000000000000000000000000000000815260206004820152601a60248201527f53757368694d616b65723a2043616e6e6f7420636f6e76657274000000000000604482015290519081900360640190fd5b6000808273ffffffffffffffffffffffffffffffffffffffff16630902f1ac6040518163ffffffff1660e01b815260040160606040518083038186803b1580156117e457600080fd5b505afa1580156117f8573d6000803e3d6000fd5b505050506040513d606081101561180e57600080fd5b5080516020909101516dffffffffffffffffffffffffffff9182169350169050600061183c876103e5611b8b565b90508373ffffffffffffffffffffffffffffffffffffffff16630dfe16816040518163ffffffff1660e01b815260040160206040518083038186803b15801561188457600080fd5b505afa158015611898573d6000803e3d6000fd5b505050506040513d60208110156118ae57600080fd5b505173ffffffffffffffffffffffffffffffffffffffff8a811691161415611a29576118e08161126f856103e8611b8b565b6118ea8284611b8b565b816118f157fe5b04945061191573ffffffffffffffffffffffffffffffffffffffff8a168589610e17565b60408051600080825260208201928390527f022c0d9f000000000000000000000000000000000000000000000000000000008352602482018181526044830189905273ffffffffffffffffffffffffffffffffffffffff8a81166064850152608060848501908152845160a48601819052918a169563022c0d9f958c948e9491939092909160c4850191908083838b5b838110156119bd5781810151838201526020016119a5565b50505050905090810190601f1680156119ea5780820380516001836020036101000a031916815260200191505b5095505050505050600060405180830381600087803b158015611a0c57600080fd5b505af1158015611a20573d6000803e3d6000fd5b50505050611b7f565b611a398161126f846103e8611b8b565b611a438285611b8b565b81611a4a57fe5b049450611a6e73ffffffffffffffffffffffffffffffffffffffff8a168589610e17565b60408051600080825260208201928390527f022c0d9f000000000000000000000000000000000000000000000000000000008352602482018881526044830182905273ffffffffffffffffffffffffffffffffffffffff8a81166064850152608060848501908152845160a48601819052918a169563022c0d9f958c95948e9491939092909160c4850191908083838a5b83811015611b17578181015183820152602001611aff565b50505050905090810190601f168015611b445780820380516001836020036101000a031916815260200191505b5095505050505050600060405180830381600087803b158015611b6657600080fd5b505af1158015611b7a573d6000803e3d6000fd5b505050505b50505050949350505050565b6000811580611ba657505080820282828281611ba357fe5b04145b6115e857604080517f08c379a000000000000000000000000000000000000000000000000000000000815260206004820152601660248201527f536166654d6174683a204d756c204f766572666c6f7700000000000000000000604482015290519081900360640190fdfea2646970667358221220369112249c8010728275e4cbf840e2f55d96c4788a7de5ccc2d2f44d89eea29564736f6c634300060c0033",
  "devdoc": {
    "kind": "dev",
    "methods": {},
    "version": 1
  },
  "userdoc": {
    "kind": "user",
    "methods": {},
    "version": 1
  },
  "storageLayout": {
    "storage": [
      {
        "astId": 3156,
        "contract": "contracts/SushiMaker.sol:SushiMaker",
        "label": "owner",
        "offset": 0,
        "slot": "0",
        "type": "t_address"
      },
      {
        "astId": 3158,
        "contract": "contracts/SushiMaker.sol:SushiMaker",
        "label": "pendingOwner",
        "offset": 0,
        "slot": "1",
        "type": "t_address"
      },
      {
        "astId": 3430,
        "contract": "contracts/SushiMaker.sol:SushiMaker",
        "label": "_bridges",
        "offset": 0,
        "slot": "2",
        "type": "t_mapping(t_address,t_address)"
      }
    ],
    "types": {
      "t_address": {
        "encoding": "inplace",
        "label": "address",
        "numberOfBytes": "20"
      },
      "t_mapping(t_address,t_address)": {
        "encoding": "mapping",
        "key": "t_address",
        "label": "mapping(address => address)",
        "numberOfBytes": "32",
        "value": "t_address"
      }
    }
  }
}